:10011F00080B0206040C08090103010A000413006E
:09012F00000000010800010900B4
:020003002139A1
:10013900C0E0C0F0C0D0050AE50A75F0038485F077
:080149000AD0D0D0F0D0E03262
:10009100E4FDFC438901758CFC758A66D28C308D38
:1000A1000D0DBD00010CC28D758CFC758A66C3ED0A
:0600B1009FEC9E40E922D5
:1000FF00D288D2A8D2AF75A003E50A600FAF0AEF7E
:10010F006401700411B780F111DB80ED315180E98A
:0601510075A00FC2902210
:1000B700C3E5089408748094805006E50804FF801F
:1000C700027F008F08740B2FF8E6F5A0B2907F78B7
:0400D7007E00019115
:1000DB00D3E5099400748094804006E50914FF80F1
:1000EB00027F078F09740B2FF8E6F5A0B2907F788B
:0400FB007E000191F1
:03000000020005F6
:0C000500787FE4F6D8FD75811602004CEF
:100011000200FFE493A3F8E493A34003F68001F206
:1000210008DFF48029E493A3F85407240CC8C333F0
:10003100C4540F4420C8834004F456800146F6DFBF
:10004100E4800B010204081020408090011FE47E2F
:10005100019360BCA3FF543F30E509541FFEE493B4
:10006100A360010ECF54C025E060A840B8E493A37B
:10007100FAE493A3F8E493A3C8C582C8CAC583CAA6
:10008100F0A3C8C582C8CAC583CADFE9DEE780BE5E
:0101380000C6
:00000001FF
