:1006900053756E004D6F6E005475650057656400AC
:1006A0005468750046726900536174003230004826
:1006B000656C6C6F20576F726C642100535443005B
:1006C000FF0690FF0694FF0698FF069CFF06A0FF1A
:0506D00006A4FF06A8CE
:08083D00012900C1000128009F
:1004010078087C007D007BFF7A0679C07E007F152D
:1004110012038E7F801207D07BFF7A0679AC120619
:10042100D5E52775F00A842430FF1207E5E5277525
:10043100F00A84E5F02430FF1207E57F2D1207E56D
:10044100E52675F00A842430FF1207E5E52675F0EC
:100451000A84E5F02430FF1207E57F2D1207E5E558
:100461002575F00A842430FF1207E5E52575F00AA9
:1004710084E5F02430FF1207E57F8D1207D0E524D3
:1004810075F003A42405F8860308E6FA08E6F912D4
:1004910006D57FC01207D0E52375F00A842430FF0A
:1004A1001207E5E52375F00A84E5F02430FF120711
:1004B100E57F3A1207E5E52275F00A842430FF1240
:1004C10007E5E52275F00A84E5F02430FF1207E51F
:1004D1007F3A1207E5E52175F00A842430FF1207FF
:0F04E100E5E52175F00A84E5F02430FF0207E518
:1007FA00C2B77F037E00120726D2B77F037E0002AC
:02080A000726BF
:1006370020B2137F0A7E0012072620B2091207FA9A
:1006470030B2FD75290120B3137F0A7E00120726F9
:1006570020B3091207FA30B3FD75290220B4137FBE
:100667000A7E0012072620B4091207FA30B4FD7576
:10067700290320B5137F0A7E0012072620B5091229
:0906870007FA30B5FD75290422C3
:100003001207A07F017E00120726C202E4F5081240
:10001300081E7BFF7A0679AF1206D5C20275080D5A
:1000230012081E7BFF7A0679BC1206D57FF47E0187
:100033001207267F011207D012080C7B007A007981
:10004300211204F0300108200005C201120401123C
:100053000637E52924FE602914607C14700302012D
:10006300E2240370D6E4F529B20030000F7F0D12AD
:1000730007D07F831207D0E4F52880BF7F0C0202EC
:100083009CE4F5293000B40528E52864077002F5DF
:1000930028E528B4070050A39000A2F8282873028B
:1000A30000B70200BC0200C10200C60200CB02007E
:1000B300D00200D57F8302029C7F8602029C7F8947
:1000C30002029C7F8F02029C7FC102029C7FC402BA
:1000D300029C7FC702029CE4F52920000302003E34
:1000E300E528B40700400302003E9000F4F82828F6
:1000F3007302010902012802014702016602018518
:100103000201A40201C30527C3E527946474809404
:10011300804003E4F527AD277F8C120766120401A4
:100123007F8302029C0526C3E526940D7480948088
:100133004003752601AD267F881207661204017FEE
:100143008602029C0525C3E5259420748094804093
:1001530003752501AD257F861207661204017F8989
:1001630002029C0524C3E524940874809480400310
:10017300752401AD247F8A1207661204017F8F0262
:10018300029C0523C3E5239418748094804003E400
:10019300F523AD237F841207661204017FC1020297
:1001A3009C0522C3E522943C748094804003E4F5CB
:1001B30022AD227F821207661204017FC402029CD1
:1001C3000521C3E521943C748094804003E4F52128
:1001D300AD217F801207661204017FC702029CE4EF
:1001E300F52920000302003EE528B407004003027E
:1001F300003E9001FCF82828730202110202290232
:10020300024002025702026E0202860202A2152770
:10021300E527F47003752763AD277F8C12076612F9
:1002230004017F8380731526E526700375260CADC4
:10023300267F881207661204017F86805C1525E5F8
:1002430025700375251FAD257F86120766120401ED
:100253007F8980451524E5247003752407AD247F29
:100263008A1207661204017F8F802E1523E523F47B
:100273007003752317AD237F841207661204017F71
:10028300C180161522E522F4700375223BAD227F4F
:10029300821207661204017FC41207D002003E15C2
:1002A30021E521F4700375213BAD217F80120766A0
:0B02B3001204017FC71207D002003EBA
:10072600E4FDFCC3ED9FEC9E5015E4FBFA0BBB0009
:0F073600010AEB647B4A70F50DBD00010C80E4F5
:010745002291
:1007D000A907C2A07F017E00120726D2A28980123B
:0507E0000726C2A22261
:1007E500A907D2A07F017E001207268980D2A21216
:0507F5000726C2A2224C
:1006D5008B1D8A1E891FAB1DAA1EA91F1203B4FFFD
:1006E500D394007480948040101207E57401251F8F
:0A06F500F51FE4351EF51E80DD221E
:10081E00E50830020424C080022480FF1207D02293
:1007A000C2A2C2A17F381207D07F0C1207D07F06E9
:0807B0001207D07F010207D0FF
:02084500C1816F
:10074600E4FEEEC39408748094805013EF139291E4
:0F075600C2900000D2900000EFC313FF0E80E3AB
:010765002271
:1006FF00E4FEEEC3940874809480501AD2900000E8
:10070F00C2900000EFC313FF3091054307808003B1
:06071F0053077F0E80DC91
:0107250022B1
:1007B800C29200C29000D29200120746AF051207FB
:0807C80046D29000C29200220B
:10078600C29200C29000D29200EF4401FF120746C7
:090796001206FFD29000C292008D
:01079F002237
:0F082E00EF60047D108002E4FD7F8E1207B82278
:10076600AC05AB07E4FF12082EAF03EC75F00A8464
:10077600C454F0FEEC75F00A84E5F04EFD0207B8AD
:1004F0007F80120786EF5470C4540F75F00AA4FE73
:10050000EF540F2EFF65216002D201EF1203CD7F61
:1005100082120786EF5470C4540F75F00AA4FEEFE0
:10052000540F2E9000011203DF7F84120786EF54D0
:1005300070C4540F75F00AA4FEEF540F2E90000201
:100540001203DF7F86120786EF5470C4540F75F0D4
:100550000AA4FEEF540F2E9000041203DF7F8A12CC
:100560000786EF5470C4540F75F00AA4FEEF540FC1
:100570002E9000031203DF7F88120786EF5470C4A9
:10058000540F75F00AA4FEEF540F2E9000051203CD
:10059000DF7F8C120786EF5470C4540F75F00AA4E5
:0B05A000FEEF540F2E9000060203DF58
:10080C007F80120786EF30E708547FFD7F80120748
:01081C006675
:01081D0022B8
:030000000205AB4B
:0C05AB00787FE4F6D8FD7581290205F286
:1002BE00E709F608DFFA8046E709F208DFFA803E22
:1002CE0088828C83E709F0A3DFFA8032E309F6080F
:1002DE00DFFA8078E309F208DFFA807088828C8377
:1002EE00E309F0A3DFFA806489828A83E0A3F6082B
:1002FE00DFFA805889828A83E0A3F208DFFA804C05
:10030E0080D280FA80C680D4806980F280338010DB
:10031E0080A680EA809A80A880DA80E280CA803344
:10032E0089828A83ECFAE493A3C8C582C8CCC583BC
:10033E00CCF0A3C8C582C8CCC583CCDFE9DEE7808C
:10034E000D89828A83E493A3F608DFF9ECFAA9F00B
:10035E00EDFB2289828A83ECFAE0A3C8C582C8CC61
:10036E00C583CCF0A3C8C582C8CCC583CCDFEADE7A
:10037E00E880DB89828A83E493A3F208DFF980CCDC
:10038E0088F0EF60010E4E60C388F0ED2402B404D5
:10039E000050B9F582EB2402B4040050AF2323457C
:0603AE00822390030E7390
:1003B400BB010689828A83E0225002E722BBFE0247
:0903C400E32289828A83E493227A
:1003CD00BB010689828A83F0225002F722BBFE010F
:0203DD00F32209
:1003DF00F8BB010DE58229F582E5833AF583E8F054
:1003EF00225006E92582C8F622BBFE05E92582C800
:0203FF00F222E8
:1005B700020003E493A3F8E493A34003F68001F257
:1005C70008DFF48029E493A3F85407240CC8C33345
:1005D700C4540F4420C8834004F456800146F6DF14
:1005E700E4800B010204081020408090083DE47E5F
:1005F700019360BCA3FF543F30E509541FFEE49309
:10060700A360010ECF54C025E060A840B8E493A3CF
:10061700FAE493A3F8E493A3C8C582C8CAC583CAFA
:10062700F0A3C8C582C8CAC583CADFE9DEE780BEB2
:0108470000B0
:00000001FF
