:0A000000020C820200C653BCDF327E
:06000B000211B0B2EE325A
:0600130002131EB2ED32E3
:06001B0002000EB2EC32FF
:06002300021063B2EB3293
:10002B0002000653B3FE53B4FE75CB0075CC002211
:06003B000209630D0A003A
:03004300020F5950
:03004B000211633C
:0300530002133164
:03005B0002134449
:1000630002001650023F0000FA00FAFF12FE0001E0
:0F007300F401F4FF0B0641023E024102A7000018
:10008300021357120413FF600C12137B740129F936
:06009300E43AFA80EE22BF
:03009B0002001E42
:0300A30002002632
:0300AB0002136AD3
:1000B3000211EBEF6401700443BC802253BC7F2226
:1000C300020BC7C0E0C083C0829002AA7401F0D0C3
:0E00D30082D083D0E03212138A120FB580FB68
:0300E30002121AEC
:0300EB00021249B5
:0300F3000212787E
:1000FB000212A7900222EBF0A3EAF0A3E9F0900220
:10010B0021EFF0640160030202D390000004F0E4DD
:10011B00A3F0A3F0A3F0A3F0A3F0A3F0900225F0BB
:10012B00900225E0FFC39480748094805014749ED9
:10013B002FF582E43400F583E4F0900225E004F01F
:10014B0080DEE4900225F0900225E0FFC3948074DA
:10015B008094805014740E2FF582E43400F583E400
:10016B00F0900225E004F080DE900222E0FBA3E099
:10017B00FAA3E0F9120413FFE598543F4FF598EFFB
:10018B0064C06008EF6440600302027890000212C2
:10019B0006577F007E607D547C0012058B900226F3
:1001AB00120687E4FFFE7D01FC900226E0F8A3E037
:1001BB00F9A3E0FAA3E0FBC312063340037FFF224F
:1001CB00900226E0F8A3E0F9A3E0FAA3E0FBC3E476
:1001DB009BFFE49AFE740199FDE498FC90022612B1
:1001EB000687900222E0FBA3E0FAA3E0F99000015E
:1001FB0012042CFB7A0064017038C28E538EFE53AE
:10020B0089BF5389CF438E40900226E0FCA3E0FDCB
:10021B00A3E0FEA3E0FF78081206448F8D90022620
:10022B00A3A3A3E0F58BC2AB5389BF538FFDD28E33
:10023B00807AEB64024A7032538EEF438E01538EF9
:10024B00F7438E04900226E0FCA3E0FDA3E0FEA39F
:10025B00E0FF78081206448FD6900226A3A3A3E0F2
:10026B00F5D753AFFB438E1080427FFF22900222C3
:10027B00E0FBA3E0FAA3E0F9120413FF7E00701475
:10028B0090000812042C64017005438E20801D53CE
:10029B008EDF8018EF64804E701290000812042CD1
:1002AB0064017005438780800353877F900222E0AF
:1002BB00FBA3E0FAA3E0F990000712042C7004C230
:1002CB009C8002D29C7F0022900221E0640260039A
:1002DB000204109000077402F0E4A3F0A3F0A3F063
:1002EB00A3F0A3F0A3F0900225F0900225E0FFC34A
:1002FB009410748094805014741E2FF582E4340192
:10030B00F583E4F0900225E004F080DEE490022512
:10031B00F0900225E0FFC394107480948050147405
:10032B008E2FF582E43400F583E4F0900225E0048F
:10033B00F080DE900222E0FBA3E0FAA3E0F91204C6
:10034B0013FF7E0064C06008EF644060030203EE9D
:10035B00EF64C04E7005439A808003539A7F9000E0
:10036B00021206577F007E607D547C0012058B9035
:10037B000226120687E4FFFE7D01FC900226E0F8C0
:10038B00A3E0F9A3E0FAA3E0FBC312063340037F1B
:10039B00FF22900226E0F8A3E0F9A3E0FAA3E0FB2A
:1003AB00C3E49BFFE49AFE740199FDE498FC900270
:1003BB0026120687538EEF538EF7438E0490022638
:1003CB00E0FCA3E0FDA3E0FEA3E0FF7808120644E7
:1003DB008FD6900226A3A3A3E0F5D753AFFB438E92
:1003EB001080037FFF22900222E0FBA3E0FAA3E040
:1003FB00F990000712042CC454F0FFE59A54EF4F08
:10040B00F59A7F00227FFF22BB010689828A83E057
:10041B00225002E722BBFE02E32289828A83E49305
:10042B0022BB010CE58229F582E5833AF583E022B4
:10043B005006E92582F8E622BBFE06E92582F8E2A2
:10044B0022E58229F582E5833AF583E49322BB0109
:10045B000689828A83F0225002F722BBFE01F32227
:10046B00BC000BBE0029EF8DF084FFADF022E4CC75
:10047B00F875F008EF2FFFEE33FEEC33FCEE9DEC3E
:10048B00984005FCEE9DFE0FD5F0E9E4CEFD22ED84
:10049B00F8F5F0EE8420D21CFEADF075F008EF2FCE
:1004AB00FFED33FD4007985006D5F0F222C398FDBF
:1004BB000FD5F0EA22C5F0F8A3E028F0C5F0F8E577
:1004CB0082158270021583E038F022A3F8E0C5F0A4
:1004DB0025F0F0E582158270021583E0C838F0E84C
:1004EB0022BB010A89828A83E0F5F0A3E022500641
:1004FB0087F009E71922BBFE07E3F5F009E31922A0
:10050B0089828A83E493F5F074019322BB0110E591
:10051B008229F582E5833AF583E0F5F0A3E02250DA
:10052B0009E92582F886F008E622BBFE0AE9258256
:10053B00F8E2F5F008E222E5832AF583E993F5F07A
:10054B00A3E9932275F008758200EF2FFFEE33FEBF
:10055B00CD33CDCC33CCC58233C5829BED9AEC9990
:10056B00E58298400CF582EE9BFEED9AFDEC99FC32
:10057B000FD5F0D6E4CEFBE4CDFAE4CCF9A8822279
:10058B00B800C1B90059BA002DEC8BF084CFCECD99
:10059B00FCE5F0CBF97818EF2FFFEE33FEED33FDD2
:1005AB00EC33FCEB33FB10D703994004EB99FB0FB7
:1005BB00D8E5E4F9FA227818EF2FFFEE33FEED338E
:1005CB00FDEC33FCC933C910D7059BE99A4007EC06
:1005DB009BFCE99AF90FD8E0E4C9FAE4CCFB22754D
:1005EB00F010EF2FFFEE33FEED33FDCC33CCC833E1
:1005FB00C810D7079BEC9AE899400AED9BFDEC9A43
:10060B00FCE899F80FD5F0DAE4CDFBE4CCFAE4C8BA
:10061B00F922EB9FF5F0EA9E42F0E99D42F0EC6483
:10062B0080C864809845F022EB9FF5F0EA9E42F07B
:10063B00E99D42F0E89C45F022E8600FECC313FC07
:10064B00ED13FDEE13FEEF13FFD8F122BB010DE509
:10065B008229F582E5833AF5830206D75007E9250F
:10066B0082F80206CABBFE07E92582F80206E3E51B
:10067B008229F582E5833AF5830206F0ECF0A3EDCF
:10068B00F0A3EEF0A3EFF022A8828583F0D083D005
:10069B00821206AA1206AA1206AA1206AAE473E48A
:1006AB0093A3C583C5F0C583C8C582C8F0A3C58312
:1006BB00C5F0C583C8C582C8228A838982E473E6E4
:1006CB00FB08E6F908E6FA08E6CBF822E0F8A3E027
:1006DB00F9A3E0FAA3E0FB22E2FB08E2F908E2FA55
:1006EB0008E2CBF822E493F8740193F9740293FABD
:1006FB00740393FB22AD07ED707EC28C120413FEC4
:10070B00C394037480948040037FFF22E58954FCDB
:10071B004EF58990000112042CFED3940274809440
:10072B008040037FFF22EEFF7E007006538E7F53C7
:10073B0089FBEF64014E7006438E805389FBEF6497
:10074B00024E700343890490000212042CFFE58FC4
:10075B0054FE4FF58F900003120517E5F0F58C90C2
:10076B000003120517F58A90000512042C7004C2C1
:10077B008C8002D28C7F0022ED6401600302081092
:10078B00C28E120413FEC394037480948040037FC3
:10079B00FF22EEC454F0FFE58954CF4FF58990004A
:1007AB000112042CFED394027480948040037FFFCB
:1007BB0022EEFF7E007006538EBF5389BFEF64019C
:1007CB004E7006438E405389BFEF64024E70034355
:1007DB00894090000212042C25E0FFE58F54FD4F59
:1007EB00F58F900003120517E5F0F58D90000312BD
:1007FB000517F58B90000512042C7004C28E800235
:10080B00D28E7F0022ED64027061538EEF90000157
:10081B0012042CFF7E007006538EFB538EF7EF6491
:10082B00014E7006438E04538EF7EF64024E700335
:10083B00438E0890000212042C25E025E0FFE58F83
:10084B0054FB4FF58F900003120517E5F0F5D6908A
:10085B000003120517F5D790000512042CC454F0B1
:10086B00FFE58E54EF4FF58E7F0022ED6403706928
:10087B0053D1F790000112042CFED3940274809490
:10088B008040037FFF22EEFF7E00700653D1FD53A5
:10089B00D1FBEF64014E700643D10253D1FBEF64E1
:1008AB00024E700343D10490000212042CFFE5D1D9
:1008BB0054FE4FF5D1900003120517E5F0F5D490D7
:1008CB000003120517F5D590000512042C333333B2
:1008DB0054F8FFE5D154F78076ED6404707753D16B
:1008EB007F90000112042CFD7C00D3940274809441
:1008FB008040037FFF22ED4C700653D1DF53D1BFF5
:10090B0090000112042C6401700643D12053D1BF17
:10091B0090000112042C6402700343D1409000023A
:10092B0012042CC454F0FFE5D154EF4FF5D19000D5
:10093B0003120517FDACF0ECF5D2AF058FD3900089
:10094B000512042CC43333335480FFE5D1547F4F4D
:10095B00F5D17F00227FFF22C0E0C083C082C0D0D0
:10096B0075D000C004C005C006C00730D87BC2D804
:10097B00AFDAC3EF944874809480401F900272E00A
:10098B00FEA3E0FF900279E02FF0900278E03EF0BA
:10099B00E0FEA3E0F5EAEEF5FA804EE5DA541160DD
:1009AB0048900284E0FFA3E090027ECFF0A3EFF02B
:1009BB00AFFA900284E4F0A3EFF0E0FEADEA7C0026
:1009CB00E42DFFEC3E900284F0A3EFF090027EE06A
:1009DB00FEA3E0FFC3900285E09FFF900284E09EA0
:1009EB00900278F0A3EFF0D20B30D97BC2D9AFDBFA
:1009FB00C3EF944874809480401F900274E0FEA370
:100A0B00E0FF90027BE02FF090027AE03EF0E0FEF8
:100A1B00A3E0F5EBEEF5FB804EE5DB54116048905F
:100A2B000286E0FFA3E0900280CFF0A3EFF0AFFBD4
:100A3B00900286E4F0A3EFF0E0FEADEB7C00E42D3A
:100A4B00FFEC3E900286F0A3EFF0900280E0FEA355
:100A5B00E0FFC3900287E09FFF900286E09E90022A
:100A6B007AF0A3EFF0D20C30DA7BC2DAAFDCC3EF53
:100A7B00944874809480401F900276E0FEA3E0FFC0
:100A8B0090027DE02FF090027CE03EF0E0FEA3E0D0
:100A9B00F5ECEEF5FC804EE5DC54116048900288D5
:100AAB00E0FFA3E0900282CFF0A3EFF0AFFC900247
:100ABB0088E4F0A3EFF0E0FEADEC7C00E42DFFEC5E
:100ACB003E900288F0A3EFF0900282E0FEA3E0FFDD
:100ADB00C3900289E09FFF900288E09E90027CF019
:100AEB00A3EFF0D20D30DF02C2DFD007D006D00566
:100AFB00D004D0D0D082D083D0E0329002A7E0FFD8
:100B0B00120D95900213EEF0A3EFF07F4112137BC1
:100B1B007F4412137B9002A7E02430FF12137B7FDC
:100B2B003D12137B900213E0FEA3E0FF7C037DE8F4
:100B3B0012046BEF2430FF12137B900213E0FEA321
:100B4B00E0FF7C037DE812046B7E007F64CFCDCF8A
:100B5B00CECCCE12046BEF2430FF12137B9002131A
:100B6B00E0FEA3E0FF7C007D6412046B7E007F0A35
:100B7B00CFCDCFCECCCE12046BEF2430FF12137B34
:100B8B00900213E0FEA3E0FF7C007D0A12046BEDE4
:100B9B002430FF12137B7F2012137B7F2012137BD9
:100BAB009002A7E004F0E0D3940474809480400B8F
:100BBB00E4F07BFF7A00793E12008622C0E0C0830E
:100BCB00C082C0D075D000C005C006C007AFBA4305
:100BDB00BA8090FE84E030E607E054BFF0020C715F
:100BEB0090FE84E030E53BE054DFF09002A3E06040
:100BFB0004E4F080719002A2E0600DE4F090FE87B7
:100C0B00E09002A4F0E0803790FE87E0FE9002A413
:100C1B00E0FD04F0748A2DF582E43402F583EEF0E6
:100C2B00804490FE84E030E426E054EFF0E030E1C5
:100C3B000890FE8674FFF0802D9002A4E004F0244F
:100C4B008AF582E43402F583E090FE86F0801790FB
:100C5B00FE84E030E310E054F7F09002A37401F04F
:100C6B009002A2F0D2128FBAD007D006D005D0D006
:100C7B00D082D083D0E032787FE4F6D8FD75812224
:100C8B00020CC90200D9E493A3F8E493A34003F642
:100C9B008001F208DFF48029E493A3F85407240CB5
:100CAB00C8C333C4540F4420C8834004F456800196
:100CBB0046F6DFE4800B0102040810204080900010
:100CCB0066E47E019360BCA3FF543F30E509541FDB
:100CDB00FEE493A360010ECF54C025E060A840B89A
:100CEB00E493A3FAE493A3F8E493A3C8C582C8CA18
:100CFB00C583CAF0A3C8C582C8CAC583CADFE9DEEB
:100D0B00E780BEE4FF90023EE0FEEFC39E507AEF19
:100D1B0075F008A42440F582E43402F583E0FCA3CB
:100D2B00E04C6061EF75F008A42440F582E43402D6
:100D3B00F58374FFF5F01204C0EF75F008A424409E
:100D4B00F582E43402F583E0FCA3E04C7037EF75D9
:100D5B00F008A42442F582E43402F583E0FCA3E01E
:100D6B00FDEF75F008A42440F582E43402F583EC22
:100D7B00F0A3EDF0EF75F008A4243FF582E4340204
:100D8B00F5837401F00F020D1022EFD3940F7480D2
:100D9B00948040028073E4F5BDF5BEE5BC54F0448D
:100DAB00404FF5BC00000000000000000000E4FD17
:100DBB00EDC394FA74809480504FE5BC30E54753F3
:100DCB00BCDFE5DEAFBD30E50DEFFEACBEECFBEB03
:100DDB00FF9002158022900215E4F0A3EFF0E5BE20
:100DEB00C4540FFBE0C4F8540FC868FF900215E021
:100DFB00C454F048FEEF4BFFEEF0A3EFF09002155A
:100E0B00E0FEA3E0FF220D80A77E107F002253A2FD
:100E1B003FE5BA54FE4401F5BAE5A254F34404F598
:100E2B00A243BA8090FEB2E054FC4402F053BA7F66
:100E3B0043BA80E054F34408F053BA7F43BA80E0DE
:100E4B0054CF4420F053BA7F43BA80E0543F4480E0
:100E5B00F053BA7F43BA8090FEB6E054FC4402F0E4
:100E6B0053BA7F43BA80E054F34408F053BA7F433C
:100E7B00BA80E054CF4420F053BA7F43BA80E05499
:100E8B003F4480F053BA7F2290000112042CFFE5FF
:100E9B00DE54F04FF5DE90000212042CC43354E004
:100EAB00FFE5DE54DF4FF5DE120413D3941F74807D
:100EBB009480503D90000312042CFFD39401748056
:100ECB009480502D90000412042CFED39403748054
:100EDB009480501D43BA80EEC43354E0FEEFC4330C
:100EEB00333354804EFF1204134F90FEA8F053BAC5
:100EFB007F2243910F5392F053B33F53B43F900271
:100F0B00187440F090021A1206930001C20090026E
:100F1B001F7401F0FB7A0279187F021200FE7D012B
:100F2B007F0112100D900213741FF0E4900216F063
:100F3B00A304F0E4900214F0A304F0FB7A027913FB
:100F4B00120E937F011200B6E4FDFF02110EC0E0FA
:100F5B00C083C082C0D075D000C007E59A30E032A4
:100F6B00539AFE90000DE0702990000BE0C3941093
:100F7B00748094804002E4F090000BE0FF04F07466
:100F8B008E2FF582E43400F583E59BF090000C7412
:100F9B0005F0E59A30E108539AFD90000AE4F0D091
:100FAB0007D0D0D082D083D0E032E4900213F090FF
:100FBB00023EE0FF900213E0FEC39F5044EE75F03B
:100FCB0008A4243FF582E43402F583E0602B900201
:100FDB0013E0FF75F008A4243FF582E43402F58397
:100FEB00E4F0EF75F008A42444F582E43402F583B1
:100FFB00A3E0FAA3E0F91206C4900213E004F08018
:10100B00AE22EFD394017480948040037FFF22EDD6
:10101B00FB7A00D394037480948040037FFF22E516
:10102B00AF54FE4FF5AFEB4A700653B6FE53B5FE09
:10103B00ED6401700653B6FE43B501EDFF7E00640F
:10104B0002700643B60153B5FEEF64034E700643C0
:10105B00B60143B5017F0022C0E0C083C082C0D07F
:10106B0075D000C007309831C298900006E0702907
:10107B00900004E0C39480748094804002E4F0906C
:10108B000004E0FF04F0740E2FF582E43400F583C6
:10109B00E599F09000057405F0309907C29990001E
:1010AB0003E4F0D007D0D0D082D083D0E032EFFB76
:1010BB007A00D394017480948040037FFF22EDD398
:1010CB0094037480948040037FFF22EB4A7004C228
:1010DB00A98002D2A9ED700553B7FDC2B9EDFF7E11
:1010EB00006401700553B7FDD2B9EF64024E700571
:1010FB0043B702C2B9EF64034E700543B702D2B9CE
:10110B007F0022EFFB7A00D394017480948040031C
:10111B007FFF22EDD394037480948040037FFF22E2
:10112B00EB4A7004C2AD8002D2ADED700553B7DF50
:10113B00C2BDEDFF7E006401700553B7DFD2BDEF7A
:10114B0064024E700543B720C2BDEF64034E7005B9
:10115B0043B720D2BD7F0022C0E0C083C082C0D085
:10116B0075D000C007E5CE30E404C211802990028F
:10117B00ABE0C39480748094804002E4F09002ABA7
:10118B00E0FF04F0742F2FF582E43401F583E5CFF3
:10119B00F090012E7405F075CDC0D007D0D0D08261
:1011AB00D083D0E032C0E0C0F0C083C082C0D07525
:1011BB00D000C000C001C002C003C004C005C006FF
:1011CB00C007120D0ED007D006D005D004D003D027
:1011DB0002D001D000D0D0D082D083D0F0D0E0327A
:1011EB00C0E0C083C082C0D075D000C007AFBA4387
:1011FB00BA80E5F630E30353F6F790FF05E06002A3
:10120B00E4F08FBAD007D0D0D082D083D0E032C0F8
:10121B00E0C083C082C0D075D000C007AFBA43BA5C
:10122B0080E5F630E70353F67F90FF55E06002E46C
:10123B00F08FBAD007D0D0D082D083D0E032C0E0CC
:10124B00C083C082C0D075D000C007AFBA43BA808C
:10125B00E5F730E30353F7F790FFA5E06002E4F006
:10126B008FBAD007D0D0D082D083D0E032C0E0C0CC
:10127B0083C082C0D075D000C007AFBA43BA80E537
:10128B00F730E70353F77F90FC05E06002E4F08F43
:10129B00BAD007D0D0D082D083D0E032C0E0C083A8
:1012AB00C082C0D075D000C007AFBA43BA80E5FE8C
:1012BB0030E30353FEF790FC55E06002E4F08FBA85
:1012CB00D007D0D0D082D083D0E032E4900213F09C
:1012DB00A304F0E4A3F0A374A9F0A3749AF0A3748D
:1012EB0001F0FB7A027913E4FF120700E4FD7F01A2
:1012FB000210B9C2C09002A9E090139B93F4F5E8D9
:10130B009002A9E004F0E0D394077480948040022B
:10131B00E4F022C0E0C083C0829002AA7402F0D035
:10132B0082D083D0E032C0E0C083C0829002AA7426
:10133B0003F0D082D083D0E032C0E0C083C0829073
:10134B0002AA7404F0D082D083D0E032C0E0C08314
:10135B00C0829002AA7405F0D082D083D0E032C054
:10136B00E0C0D053E6BFE5E61392C7D0D0D0E03251
:10137B008F9B90000A7401F090000AE070FA221221
:10138B0012D6120E19D2AF02139512002E020EFDB9
:08139B0001020408102040804B
:00000001FF
