:10010F000150FE2030080000000000000000000831
:10011F00080808080808808080FE909080800040C2
:10012F00444444444000000202FE0A120200000050
:10013F0000000000000018380C1E3E7C7C3E1E0C98
:10014F0010385410101010100C1E3E7C7C3E1E0CEC
:10008F00E4F553E4F551F55275507FE4F554E5531B
:10009F0075F008A424382554F8E6FF12017F0554A3
:1000AF00E554C3940840E70552E55270020551C369
:1000BF0094E8E551940340D00553E553C3940340AE
:1000CF00C2E4F553E553C3942850B5E4F551F55206
:1000DF0075507FE4F554E55325542408F8E6FF12D4
:1000EF00017F0554E554C3940840EB0552E5527067
:1000FF00020551C39432E551940040D4055380C496
:10017F008F55AF50120160AF55120160D2B500C25A
:0B018F00B500E550C3134480F550227A
:10016000C2B600C2B500E4FEEF30E004D2B48002B3
:0E017000C2B4D2B6C2B6EFC313FF0EBE08EA89
:01017E00225E
:03000000020003F8
:0C000300787FE4F6D8FD75815502004AB4
:10000F0002008FE493A3F8E493A34003F68001F278
:10001F0008DFF48029E493A3F85407240CC8C333F2
:10002F00C4540F4420C8834004F456800146F6DFC1
:10003F00E4800B010204081020408090010FE47E41
:10004F00019360BCA3FF543F30E509541FFEE493B6
:10005F00A360010ECF54C025E060A840B8E493A37D
:10006F00FAE493A3F8E493A3C8C582C8CAC583CAA8
:10007F00F0A3C8C582C8CAC583CADFE9DEE780BE60
:01015F00009F
:00000001FF
