:10013C000A093F065B4F666D7D077F6F0113000157
:05014C00150001140084
:0A015200758901758CD8758AF022BA
:07015C00D288D2A8D2AF2225
:0300030002016394
:07016300D2A9D28CD2AF3209
:03000B000200D11F
:1000D100C0E0C0D0758901758C3C758AB0D28CD2D4
:1000E100A9D2AFD290D2910513D3E51394137480A2
:0E00F100948040057513000515D0D0D0E03284
:0800FF00F8E6F5807F0A7E009F
:10010700D3EF9400EE940040147D6E7C00ED1D70DB
:0D011700011CED4C70F7EF1F70E61E80E339
:0101240022B8
:10012500AB05C2B774092F1200FFD2B7C2B6740966
:070135002B1200FFD2B622DD
:10009A00C29112015C120152C290E51575F00A84F0
:1000AA00FFE51575F00A84ADF0120125120103D39C
:1000BA00E515940C7480948040E0C2A9C28CE4F5E2
:0700CA0015C290C29180D322
:0300000002000EED
:0C000E00787FE4F6D8FD758115020055DE
:10001A0002009AE493A3F8E493A34003F68001F262
:10002A0008DFF48029E493A3F85407240CC8C333E7
:10003A00C4540F4420C8834004F456800146F6DFB6
:10004A00E4800B010204081020408090013CE47E09
:10005A00019360BCA3FF543F30E509541FFEE493AB
:10006A00A360010ECF54C025E060A840B8E493A372
:10007A00FAE493A3F8E493A3C8C582C8CAC583CA9D
:10008A00F0A3C8C582C8CAC583CADFE9DEE780BE55
:0101510000AD
:00000001FF
