:1001A3003C4242424242423C183878181818181808
:1001B300007E02027E40407E007E02027E02027EBC
:1001C300004848487E080808007E40407E02027EC0
:1001D300007C40407C44447C007C0404040404040C
:1001E300007C44447C44447C007E42427E02027E86
:10020B00020B0000010800010901010A01010E00A7
:03021B00010D00D2
:1001F30075B080750901758901758CF1758A60D2B6
:080203008C75A882D2AF80FEC9
:03000B0002000EE2
:10000E00C0E0C0F0C083C082C0D075D000C000C0B8
:03001E0006C00712
:10002100AF90EFF46038E509650A7032AF90EF6484
:10003100FE7003750A05AF90EF64FD7003750A0445
:10004100AF90EF64FB7003750A03AF90EF64F77034
:1000510003750A02AF90EF64EF7003750A01758CA6
:10006100F1758A60AFB07801EF08800123D8FDF502
:10007100B0E50975F008A4250C25089001A393F4B7
:10008100F580E509C3950A5031050CE50C700205B0
:100091000B6408450B706EF50BF50C050EE50E644F
:1000A100047062F50E0508AF08EF3395E0FEEF64CA
:1000B100084E7051F5080509804BE509D3950A40B2
:1000C10032050CE50C7002050B6408450B7036F522
:1000D1000BF50C050EE50E6404702AF50E1508AF3C
:1000E10008EF3395E0FEBEFF1CBFF8197508001537
:1000F100098012050CE50C7002050B6408450B70B4
:0501010004F50BF50CF4
:10010600D007D006D000D0D0D082D083D0F0D0E0B7
:0101160032B6
:03000000020117E3
:0C011700787FE4F6D8FD75810E02015ED1
:100123000201F3E493A3F8E493A34003F68001F2FE
:1001330008DFF48029E493A3F85407240CC8C333DD
:10014300C4540F4420C8834004F456800146F6DFAC
:10015300E4800B010204081020408090020BE47E2F
:10016300019360BCA3FF543F30E509541FFEE493A1
:10017300A360010ECF54C025E060A840B8E493A368
:10018300FAE493A3F8E493A3C8C582C8CAC583CA93
:10019300F0A3C8C582C8CAC583CADFE9DEE780BE4B
:01021E0000DF
:00000001FF
