:1008CC0053554E4D4F4E5455455745445448554637
:0E08DC005249534154005059233105078820DA
:10094500080E3000000000000000010C0001090144
:0309550001190085
:1008AC00E4FDFCC3ED9FEC9E5015E4FBFA0BBB0082
:0F08BC00010AEB647B4A70F50DBD00010C80E46E
:0108CB00220A
:10091C00A907C2A07F017E001208ACD2A289801266
:05092C0008ACC2A2228C
:0308EA002430FFB8
:1008ED00A907D2A07F017E001208ACC2A1C2A289C5
:0908FD0080D2A21208ACC2A222B2
:10067A00C2A2C2A17F3812091C7F0C12091C7F0674
:10068A0012091C7F0112091C7F8012091C7F057E3A
:09069A00001208AC7F8002091C6B
:0509790012097ED2B05E
:07097E000000000000002250
:10093100D2B100D2B00000000000C2B1000000003E
:0409410000C2B0221E
:0C098500C2B1C2B0120979D2B102097EE1
:0B099100EF24FF92B1120979C2B022DE
:100906007F14D2B112097930B107DFFB1209858055
:06091600F6C2B002097EEA
:07062400AC071209317FA2AF
:10062B00E4FEEEC39408748094805018EF30E70416
:10063B00D2B18002C2B1EF25E0FFD2B012097EC267
:04064B00B00E80DE8F
:01064F002288
:10080200D2B1E4FEEEC39408748094805014D2B046
:10081200EF25E0FFA2B1E4334207C2B012097E0E17
:0208220080E272
:0108240022B1
:10095900120624AF0412062BAF0512062B020985D5
:02082500AD071D
:10082700120626AF0512062B1209317FA312062BDB
:0F083700120802AE077F01120991120985AF0660
:01084600228F
:060491008B218A22892361
:10049700120624E4FF120991AF0412062BE4FF129F
:1004A70009911209317FA312062BE4FF120991E487
:1004B700FCECC39D5022120802AB21AA22A9238C6F
:1004C70082758300EF1205D3ED14FFECC39F50052F
:1004D700E4FF1209910C80D97F0112099102098565
:1004E7007B007A00791A7D077F02120491E51A547E
:1004F7007FF50EE51B547FF50FE51C543FF510E51E
:100507001D543FF511E51E5407F512E51F541FF55D
:1005170013E520F514E51F5480F5157003751514C0
:09052700E51564807003751513DD
:0105300022A8
:0B099C001204E7E50E70031204E722CE
:10057700AD0E7F02120959AD0F7F03120959AD1055
:100587007F04120959AD117F05120959AD127F0673
:10059700120959E5156414700353133FE5156419DF
:1005A7007003431380AD0F7F07120959AD0E7F0803
:0305B700020959DD
:100531007F0A120825EF543F64086039E4FFEFC3D6
:10054100940874809480500FEF9008E293FE740E2B
:100551002FF8A6060F80E7120577E4FDFF1209596F
:100561007D087F0A1209597D127F011209597DF018
:050571007F0D12095985
:010576002262
:10088B00EF75F00A84F521EF75F00A8485F0227F6D
:10089B00CA12091CE5211208EAE5222430FF0208DE
:0108AB00ED5F
:10076F00EF75F00A84F521EF75F00A8485F0227F8A
:10077F00C712091CE5211208EAE5222430FF1208EE
:06078F00ED7F3A0208EDC7
:1006A300EF75F00A84F521EF75F00A8485F0227F57
:1006B300C412091CE5212430FF1208EDE522243081
:0906C300FF1208ED7F3A0208ED78
:1007BA00EF75F00A84F521EF75F00A8485F0227F3F
:1007CA008912091CE5212430FF1208EDE5222430A4
:0407DA00FF0208ED25
:1006CC00EF75F00A84F521EF75F00A8485F0227F2E
:1006DC008612091CE5212430FF1208EDE522243096
:0906EC00FF1208ED7F2D0208ED5C
:1006F500EF75F00A84F521EF75F00A8485F0227F05
:100705008312091CE5212430FF1208EDE52224306F
:09071500FF1208ED7F2D0208ED32
:0205F5008F2154
:1005F700E5211475F003A4F5217F8D12091CE4F59C
:1006070022C3E5229403748094805010E52190085A
:0C061700CC93FF1208ED0521052280E5C0
:0106230022B4
:1007DE00EF75F00A84F51AEF75F00A8485F01B7F29
:1007EE008112091CE51A2430FF1208EDE51B243096
:0407FE00FF0208ED01
:10071E00E4FFEFC3940774809480501C740E2FF87E
:10072E00E6FEC4540F75F00AA4FDEE540F2DFE74B0
:08073E000E2FF8A6060F80DA69
:010746002290
:10074700AF151207DEAF141206F5AF131206CCAFC2
:10075700111207BAAF121205F5AF101206A3AF0FA9
:0807670012076FAF0E02088BB0
:06023B008F1B8B1DAC05BA
:10024100AF1D1208258F1BE51D24FEB40700503B8E
:1002510090025F75F003A4C58325F0C58373020284
:100261007402027602027B02027D0202820202878E
:1002710002028C8000531B7F80118000531B3F8042
:100281000A531B078005531B1F8000E51BC4540F35
:10029100F51FE51B540FF520E51F75F00AA4252075
:1002A100F51BEC7003020350051BE51E14B4070097
:1002B10040030203E59002C475F003A4C58325F051
:1002C100C583730202D90202EA0202FB02030C0295
:1002D100031D02032E02033FD3E51B946374809434
:1002E100804003E4F51B020388D3E51B940C748062
:1002F10094804003751B01020396D3E51B941F7480
:100301008094804003751B010203A4D3E51B94066E
:10031100748094804003E4F51B0203B3D3E51B947E
:1003210017748094804003E4F51B0203C2D3E51BDC
:10033100943B748094804003E4F51B0203D1D3E520
:100341001B943B748094804003E4F51B0203E01589
:100351001BE51E14B4070040030203E590036B750F
:10036100F003A4C58325F0C5837302038002038FC4
:1003710002039D0203AB0203BA0203C90203D8E5DB
:100381001BF47003751B63AF1B1206F58056E51B4A
:100391007003751B0CAF1B1206CC8048E51B700364
:1003A100751B1FAF1B1207BA803AE51BF47003756A
:1003B1001B06AF1B1205F5802BE51BF47003751BA3
:1003C10017AF1B1206A3801CE51BF47003751B3BC2
:1003D100AF1B12076F800DE51BF47003751B3BAF5C
:1003E1001B12088BE51B75F00A84F51FE51B75F0E0
:1003F1000A8485F020E51FC454F02520F51BFDAFCC
:040401001D02095976
:040847007F037E00AD
:10084B00D3EF9400EE940040147D6E7C00ED1D7090
:0D085B00011CED4C70F7EF1F70E61E80E3EE
:01086800226D
:10000E00E4F51A308003020238C2AF7F05FE1208F3
:10001E004B3080030202383080FD051A20800F7F9E
:10002E00057E0012084B2080053080FD051A7D20CC
:10003E00E4FF1209597F0F12091CE51A6401703C86
:10004E007F081208258F167F8412091C2081151235
:10005E00084720810F3081FD751E017B087D01AFA1
:10006E001612023B20821512084720820F3082FDA5
:10007E00751E017B08E4FDAF1612023BE51A640201
:10008E00703C7F071208258F0B7F8712091C208179
:10009E001512084720810F3081FD751E027B077DEA
:1000AE0001AF0B12023B20821512084720820F303F
:1000BE0082FD751E027B07E4FDAF0B12023BE51AB3
:1000CE006403703C7F051208258F177F8A12091C66
:1000DE0020811512084720810F3081FD751E037B8C
:1000EE00057D01AF1712023B2082151208472082B0
:1000FE000F3082FD751E037B05E4FDAF1712023B28
:10010E00E51A6404703C7F061208258F0D7F8E124F
:10011E00091C20811512084720810F3081FD751EA4
:10012E00047B067D01AF0D12023B2082151208479B
:10013E0020820F3082FD751E047B06E4FDAF0D128A
:10014E00023BE51A6405703C7F041208258F187F68
:10015E00C512091C20811512084720810F3081FD20
:10016E00751E057B047D01AF1812023B208215120D
:10017E00084720820F3082FD751E057B04E4FDAF1B
:10018E001812023BE51A640670407F031208258F91
:10019E000A7FC812091C2081197F057E0012084BA8
:1001AE0020810F3081FD751E067B037D01AF0A1283
:1001BE00023B20821512084720820F3082FD751EE9
:1001CE00067B03E4FDAF0A12023BE51A6407704496
:1001DE007F021208258F087FCB12091C20811D1269
:1001EE0008472081173081FDE50864607002F5082C
:1001FE00751E077B027D01AF0812023B208215128D
:10020E00084720820F3082FD751E077B02E4FDAF8A
:10021E000812023BE51A6408600302002AFDFF1271
:0C022E000959E4F51A7F0C12091CD2AF2C
:01023A0022A1
:100650008B248A258926AB24AA25A9261205BAFF50
:10066000D394007480948040101208ED7401252604
:0A067000F526E43525F52580DD228E
:10096900D2AFD2A9758901758CEC758A78D28C229F
:1007950012096912053112067A7FE87E031208AC48
:1007A500E509600912099C12071EE4F509120747BD
:0507B50012000E80EBB4
:03000B000208697F
:10086900C0E0C0D0758CEC758A780519C3E5199478
:10087900C8748094804006751900750901D0D0D0DC
:02088900E0325B
:03000000020405F2
:0C040500787FE4F6D8FD75812602044CD7
:1005BA00BB010689828A83E0225002E722BBFE023F
:0905CA00E32289828A83E4932272
:1005D300F8BB010DE58229F582E5833AF583E8F05E
:1005E300225006E92582C8F622BBFE05E92582C80A
:0205F300F222F2
:10041100020795E493A3F8E493A34003F68001F265
:1004210008DFF48029E493A3F85407240CC8C333EC
:10043100C4540F4420C8834004F456800146F6DFBB
:10044100E4800B0102040810204080900945E47EFD
:10045100019360BCA3FF543F30E509541FFEE493B0
:10046100A360010ECF54C025E060A840B8E493A377
:10047100FAE493A3F8E493A3C8C582C8CAC583CAA2
:10048100F0A3C8C582C8CAC583CADFE9DEE780BE5A
:01095800009E
:00000001FF
