:10051F0073746334303861730A00524543455F4941
:10052F005220444154413A25303262782D253032E1
:10053F0062782D25303262782D2530326278200A8C
:10054F00002052656420436F6E74726F6C20002020
:10055F002049522D434F44453A202D2D482020004D
:1005E700759850438E01538EFB75D7E875D6FF4338
:0505F7008E10D29922D4
:1005B40075A881758801D2B21205E77F0A7E001200
:0D05C40005967BFF7A05791F12006880FE06
:0300030002036293
:0D036200C0E0C0F0C083C082C0D075D000E4
:10036F00752500C2A87F0F1205D130B205D2A802A1
:10037F00045A20B2077F011205D180F6752300C3FE
:10038F00E5239404748094805069752400C3E52498
:10039F00940874809480505730B2077F011205D1B2
:1003AF0080F620B2077F011205D180F630B2177F99
:1003BF00011205D10525C3E525941E748094804054
:1003CF00EBD2A802045A74082523F8C000E6FFC335
:1003DF0013D000F6C3E52594087480948040097407
:1003EF00082523F8E64480F67525000524809E0530
:1003FF0023808CE50BF4650A6004D2A8804DE50AD2
:10040F00540FF50DE50AC4540FF50ED3E50D9409FD
:10041F007480948040028000D3E50E940974809418
:10042F0080400280007BFF7A05792985083D850988
:10043F003E850A3F850B401200687E007F077D00D6
:0B044F007B007A007908120465D2A837
:0B045A00D0D0D082D083D0F0D0E032B0
:1005D100AD071FED600FE4FEEEC3940D74809480AF
:0505E10050EE0E80F356
:0105E60022F2
:10059600EF1FAA0670011E4A6013E4FDEDC394FA2C
:0D05A6007480948050EA000000000D80EF8A
:0105B3002225
:030000000205FCFA
:0C05FC00787FE4F6D8FD75814D0205B44F
:10000600E549243DF8E6054922783A301002783D64
:10001600E475F0011204E90204912009EB7F2ED267
:10002600098018EF540F2490D43440D4FF300D0BC0
:10003600EF24BFB41A0050032461FFE54A6002159D
:100046004A054DE54D7002054C30100D783AE475C1
:10005600F0011204E9EF0204D702056F7403D2100F
:100066008003E4C210F5498B3A8A3B893CE4F54AA1
:10007600F54CF54DE54A60077F2012004180F57585
:100086004BFFC20AC209C20BC20CC20EC20FC2117A
:1000960012000FFF700D3010057F00120052AF4D99
:1000A600AE4C22B4255FC2D5C20D12000FFF24D07C
:1000B600B40A00501A75F00A784A30D50508B6FF1A
:1000C6000106C6A426F620D5047002D20C80D924D7
:1000D600CFB41A00EF5004C2E5D20D020252D20A82
:1000E60080C6D20980C0D20B80BCD2D580BAD20ECF
:1000F60080B47F20120041200B077401B54A0040EE
:10010600F1120006FF12004102007AD211D20F80CE
:1001160095120006FB120006FA120006F94A4B7009
:100126000679237A037BFF200B2EE54A602A7E00A0
:100136008E827583001204AA60060EEE654B70F07F
:10014600C2D5EBC0E0EAC0E0E9C0E0EE120299D009
:10015600E0F9D0E0FAD0E0FB120491FF60AAEBC010
:10016600E0EAC0E0E9C0E0120041D0E02401F9D0A5
:10017600E03400FAD0E0FBE54B0460DCD54BD980D7
:10018600877BFF7A027995D20B809C791080027961
:1001960008C20FC2118008D2D5790A8004790AC232
:1001A600D5E54B047002F54BE4FAFDFEFF1200069E
:1001B600FC7B08200A13120006FD7B1030090A1288
:1001C6000006FE120006FF7B20EC3382D592D55046
:1001D60013C3E43009069FFFE49EFEE4200A039D54
:1001E600FDE49CFCE4CBF8C20AEC700CCFCECDCC7F
:1001F600E824F8F870F38017C3EF33FFEE33FEED13
:1002060033FDEC33FCEB33FB994002FB0FD8E9EBF3
:10021600300A05F8D0E0C448B20AC0E00AEC4D4EF8
:100226004F78207B0070C2EAB54B0040BCC0E0129C
:10023600029BD0F0D0E0200A04C4C0E0C4B20AC0D9
:10024600F012002AD0F0D5F0EB02007A1204F90180
:10025600175301915800E84C00E44201954F019D67
:0F02660044019D4900FD4301A3550187460187CF
:100275004501874703435000EC2D00F02E01132B59
:1002850000F423011120032C2A00AC480000010BC7
:100295003F3F3F00790AA2D5200C14300E09B91052
:1002A500020404B9080104A2D5200F02500104205C
:1002B5000B68920BB54A005034C0E07F20300C1912
:1002C5007F30A20B720F720E500F1202F2C20BC2D8
:1002D5000FC20EC2117F30800F300E03E9C0E0124D
:1002E5000041300E03D0E0F9D0E0B54ACC300E170E
:1002F5007F30B9100C1200417F58300D077F788090
:1003050003B90803120041300B057F2D0200417F20
:10031500202011F87F2B200FF322920B80CF286E1F
:10032500756C6C2900D20A120006300AF8C20A78E8
:100335004A30D50108F60200AC2D50434958120049
:10034500062403B405004001E490033E93120032F5
:0D035500743A120032D20C754A0402019174
:10046500EF4E6012EF60010EEDBB010B89828A83AE
:10047500F0A3DFFCDEFA2289F05007F709DFFCA9BB
:0C048500F022BBFEFCF309DFFCA9F02212
:10049100BB010689828A83E0225002E722BBFE0269
:0904A100E32289828A83E493229C
:1004AA00BB010CE58229F582E5833AF583E0225007
:1004BA0006E92582F8E622BBFE06E92582F8E22251
:0D04CA00E58229F582E5833AF583E493226B
:1004D700BB010689828A83F0225002F722BBFE0104
:0204E700F322FE
:1004E900FAE6FB0808E6F925F0F618E6CA3AF62214
:1004F900D083D082F8E4937012740193700DA3A392
:1005090093F8740193F5828883E4737402936860A5
:06051900EFA3A3A380DFA5
:10056F00EFB40A07740D12057A740A309811A8991E
:10057F00B8130CC2983098FDA899C298B811F630EC
:07058F0099FDC299F59922C4
:00000001FF
