:10017900CAE9C9BDD3D0C2B7C7DACEAABEB6A3BB36
:1001890000D1A7BAA3CEDED1C4BFE0D7F7D6DBA191
:10019900A300C4AAB3EEC7B0C2B7CEDED6AABCBA12
:1001A900A3BB00CCECCFC2CBADC4DCB2BBCAB6BEDC
:0401B900FDA1A30001
:09041B00007F027EC7DEFEDFFC5B
:0104240022B5
:1003BA00AD07AC06ED1DAE0470011C4E60051204BB
:0403CA001B80F12281
:1001BD001200661201227BFF7A017979E4FFFE12AB
:1001CD0002877BFF7A01798A7F007E011202877B8D
:1001DD00FF7A01799B7F007E021202877BFF7A01F5
:0B01ED0079AC7F007E0312028780FEC9
:07045E00AE07E4FD12042CBF
:010465002274
:03047900D2A522E7
:03047C00C2A522F4
:03047F00D2A522E1
:03048200C2A522EE
:03048500D2A722D9
:07042500EE25E0FE12046564
:03042C00C2A72242
:0E037300EE25E0FE120465120485ED25E0FD86
:0B038100D2A5120465A2A5E433FF2200
:1002DC0012045EFCECC39408748094805018EE30C9
:1002EC00E705120479800312047C120373EF4205B4
:0802FC0012042C0C80DEAF059A
:0103040022D6
:10025B0012045EFCECC3940874809480501B12044F
:10026B0085EE30E705120479800312047C12042515
:0B027B0012037DEF42050C80DBAF0595
:010286002255
:0201F800AE0750
:1001FA00E4FD120485120465FCECC394087480942F
:10020A0080501BEE30E705120479800312047C1239
:10021A00042512037DEF42051204850C80DBAF052D
:01022A0022B1
:02022B00AE071C
:10022D00E4FD120485120465FCECC39408748094FB
:10023D0080501812042CEE30E70512047980031259
:0D024D00047C120373EF42050C80DEAF0548
:01025A002281
:0C04020012049A12049D12040E1204A0B1
:01040E0022CB
:03048800D2A622D7
:03048B00C2A622E4
:03048E00C2B222D5
:03049100D2A622CE
:03049400C2A622DB
:03049700D2A522C9
:03049A00C2A522D6
:03049D00D2A722C1
:0304A000C2A722CE
:0304A300AF802205
:0304A6008F802222
:0704660053800FEF428022DA
:1000660012048E7F327E001203BA7F331203E47FBE
:10007600017E001203BA7F321203E47F017E001272
:1000860003BA7F081203E47F017E001203BA7F10D1
:100096001203E47F017E001203BA7F0C1203E47F91
:1000A600017E001203BA7F011203E47F0A7E00126A
:0E00B60003BA7F061203E47F0A7E000203BA3B
:0303E1002480FF76
:0F03E4008F1A7FF812045512040EAF1A0203CEBF
:0F03F3008F1A7FFA12045512040EAF1A0203CEAE
:090443001204A61204020204973F
:09044C0012046612040202049776
:0904550012048812022B02048B30
:1003CE008F1BE51B54F0FF120455E51BC454F0FFC0
:0303DE00020455C1
:06046D001204910203A538
:060473001204940203A52F
:1003A5001204971204A012040E12049D12040E12D8
:0503B50004A30204A0F6
:0402B200AD07AC06E2
:1002B6007B80AF04AE05EFFD7C00640170027B908D
:1002C600ED64024C70027B88ED64034C70027B98EF
:0602D600EB2EFF0203E421
:04035200AD07AC0641
:10035600EC5403FFED5407FEEFC31375F008A42E0B
:0C036600FEEFC45410FDAF06EFFEEDFFEB
:010372002268
:1003050053077F53053FEFC4540FF520EDC4135435
:1003150007F521ED541F1203E1E5202480FFE521B7
:0903250075F008A42FFF0203E4A7
:100122007F081203E412040E7F011203E412042F6B
:10013200E4F518C3E518942074809480502AE518D9
:100142001203E17F801203E4E4F517C3E51794106C
:1001520074809480500EE4FF1203F3E4FF1203F361
:10016200051780E7051880CB1204397F0C1203E4CF
:070172007F0A7E000203BAC0
:0A042F007F341203E47F360203E479
:0A0439007F361203E47F300203E473
:040003008D118B12BE
:10000700120352AC06ECF515EF543FF51612042F08
:10001700E4F513C3E513941074809480503EE516FD
:1000270024802513FF1203E4E5152480FF1203E45F
:10003700E4F514E514C39511501EE51260047FFF23
:1000470080027F001203F3E51260047FFF80027FC6
:0F005700001203F3051480DB051380B702043990
:04032E008C1C8D1D79
:10033200E51CF51EE51DF51F1202B2D3E51D9480E2
:10034200E51C94004005AF1E1203F3AF1F0203F336
:100287008B178A1889191202B2AB17AA18A9191263
:10029700038CFFFD3395E04D60101203F3740125C5
:0B02A70019F519E43518F51880DF2266
:0800C4008B088A09890A8D0BE3
:1000CC0012042F850E10E50C250EFFE433FEC3E55C
:1000DC00109FEE6480F87480985038AD10AF0D12FC
:1000EC000305E4F50FE50B131313541FFFE50FC3C2
:1000FC009F501CAB08AA09A90A12038CFF1203F328
:10010C007401250AF50AE43509F509050F80D605B1
:06011C001080B30204395B
:0300000002040FE8
:0C040F00787FE4F6D8FD7581210201BD64
:10038C00BB010689828A83E0225002E722BBFE026F
:09039C00E32289828A83E49322A2
:00000001FF
