:0E0FBF0000007F2B7E067DCBDDFEDEFCDFFA20
:010FCD002201
:060B51008B2F8A30893170
:100B5700EF64016003020D14751001F511F512F52C
:100B670013F514F515F516FFEFC3942874809480D8
:100B7700500974662FF8E4F60F80EDE4FFEFC39495
:100B870028748094805009743E2FF8E4F60F80EDA6
:100B9700AB2FAA30A9311204EEFD7C00D394C074A8
:100BA70080948040037F012290000A1205076401A8
:100BB7007004D2BC8002C2BC1204EEFFE598543F19
:100BC7004FF598ED64C04C6008EF64406003020C79
:100BD7008F9000021206467F007E307D2A7C00122D
:100BE70005828F358E348D338C32E4FFFE7D01FC18
:100BF700AB35AA34A933A832C312062240037F02B9
:100C070022C3E49535F535E49534F534740195330D
:100C1700F533E49532F532AB2FAA30A931900001B4
:100C2700120507FB7A006401702CC28E538EFE53A7
:100C370089BF5389CF438E40AF35AE34AD33AC3225
:100C470078081206338F8D85358BC2AB5389BF5316
:100C57008FFDD28E806CEB64024A7029538EEF436E
:100C67008E01538EF7438E04AF35AE34AD33AC32BD
:100C770078081206338FD68535D753AFFB538EF7D7
:100C8700438E10803D7F0222AB2FAA30A931120478
:100C9700EEFF7E00701490000812050764017005CE
:100CA700438E20801D538EDF8018EF64804E7012B4
:100CB700900008120507640170054387808003537D
:100CC700877FAB2FAA30A93190000912050764016D
:100CD7007004D2AC8002C2AC900007120507640111
:100CE7007004D29C8002C29C90000B12050754C06E
:100CF700FFE5A2543F4FF5A290000C1205076401CF
:0F0D0700700543971080035397EF7F00227F03FF
:010D160022BA
:100F9E0074662512F8A6070512C3E512942874800C
:100FAE0094804003E4F512E5137005751301D29990
:010FBE002210
:03002300020DC209
:100DC200C0E0C0D075D000C000C007309821C298E2
:100DD200E516701BC3E51494287480948040037553
:100DE2001400AF140514743E2FF8A699751505303A
:100DF2009925C299E5116512601A74662511F8E603
:100E0200F5990511C3E51194287480948040087502
:100E120011008003751300D007D000D0D0D0E0328B
:05100F00AE07020F9E78
:100E7B0058D6E1BCD3CBD9B6C83D2564A3AC0A0088
:100E8B0059D6E1BCD3CBD9B6C83D2564A3AC0A0077
:100E9B005AD6E1BCD3CBD9B6C83D2564A3AC0A0066
:100EAB00CEC2B6C83D25332E3166A1E6A3AC0A00EF
:100EBB00752240752302E4752780752625F525F5E7
:100ECB0024752901F52A752B01F52CF52DF52EFB33
:090EDB007A0079227F01020B511B
:100D1700E4F591F592F595F596120EBBD2AF120F49
:100D2700587F3B120F7B8E258F267BFF7A0E797BB0
:100D3700120744120FBF7F3D120F7B8E258F267B34
:100D4700FF7A0E798B120744120FBF7F3F120F7B7A
:100D57008E258F267BFF7A0E799B120744120FBFD1
:100D67007F43120F7B8E258F267BFF7A0E797B12AE
:100D77000744120FBF7F45120F7B8E258F267BFFFF
:100D87007A0E798B120744120FBF7F47120F7B8EA3
:100D9700258F267BFF7A0E799B120744120FBF120D
:100DA7000E228F288E278D268C257BFF7A0E79AB16
:0B0DB700120744B290120FBF020D287B
:05001C00007F0BDFFE78
:0100210022BC
:0F0FCE00D2A1D2A012001CC2A112001CC2A022EC
:0C0FEB00C2A1D2A012001CD2A102001C66
:0E0FDD00A20092A1D2A012001CC2A002001C11
:0C0FF700D2A012001CA2A1C2A002001C8B
:020F3400AE0706
:100F3600E4FDEDC39408748094805013EE25E0FE22
:100F460092A1D2A012001CC2A012001C0D80E302C6
:020F56000FF793
:100EE400E4FED2A1FDEDC39408748094805017EE03
:100EF40025E0FED2A012001CA2A1E4334206C2A047
:080F040012001C0D80DFAF0696
:010F0C0022C2
:10000300AC05AB07120FCE7FD0120F34AF03120F24
:0900130034AF04120F34020FEBAC
:020F0D00AC072F
:100F0F00120FCE7FD0120F34AF04120F34120FCE48
:100F1F007FD1120F34120EE4AE07D200120FDD1282
:040F2F000FEBAF060F
:010F3300229B
:100F5800E4FD7F6B1200037D077F191200037D06F5
:100F68007F1A1200037D187F1B1200037D017F1C6E
:030F780002000371
:020F7B00AB07C2
:100F7D00120F0DAA07EB04FF120F0DAD07AF02EF15
:100F8D003395E0EFFEED3395E0FCE42DFFEE3CFEF6
:010F9D002231
:100E22007F41120F0DAB077F42120F0DAD07AF03CB
:100E3200EF3395E0EFFEED3395E04EFCEC1201C38B
:100E42008F258E248D238C227F007E407D4E7C4612
:100E5200AB25AA24A923A82212002DE4FBFA798C3F
:100E620078431201217B667A66792678C212002DB8
:080E72008F258E248D238C22B4
:010E7A002255
:10002600020231E86480F8E933E83360110460F0D5
:10003600ED33EC337009E8FCE9FDEAFEEBFF220440
:1000460060DED3EB9FEA9EE99DE8C2E78CF0C2F73B
:1000560095F0400CE8CCF8E9CDF9EACEFAEBCFFB07
:100066001201FC85D0F05804700320D5B3E8047063
:10007600075002B2D502023B92D5EC0460F7E4CCFD
:10008600C0E0C398F8603B94186008400DD0E0FBD0
:10009600020213E4FBFAC9FC8028E830E406E4C94E
:1000A600FBE4CAFCE830E305E4C9CACBFCE8540724
:1000B6006010F8C3E913F9EA13FAEB13FBEC13FC2F
:1000C600D8F130F52FC3E49CFCEF9BFFEE9AFEEDD2
:1000D60099FDD0E0FBEF4E4D4C701222DB0302027D
:1000E60038EC2CFCEF33FFEE33FEED33FDED30E75D
:1000F600EB020213EF2BFFEE3AFEED39FDD0E0FBEB
:1001060050130BBB000302023BED13FDEE13FEEF93
:0801160013FFEC13FC020213BD
:10011E0002023BEC5D046005E859047003020231F3
:10012E001201FC580460F6EC4860F2EC7004FDFE1F
:10013E00FF22C860DB2481C85009C39860025006B4
:10014E000202389850CAF582E9294B4A7005AB82F3
:10015E0002022775F0007C1A7880C3EF9BEE9AEDB1
:10016E0099400DC3EF9BFFEE9AFEED99FDE842F02C
:10017E00DC23ACF0D0E0FFD0E0FED0E0FDAB82207F
:10018E00E7101BEB60BAEC2CFCEF33FFEE33FEED09
:10019E0033FD020213E803F830E705C0F075F000F6
:1001AE00EF2FFFEE33FEED33FD40B830E7C280AAED
:1001BE0075F020800E75F010800575F0087D007EBC
:1001CE00007F003392D530D503120614EC33401065
:1001DE00EF33FFEE33FEED33FDEC33FCD5F0ED22C5
:0E01EE00E5F0247EA2D513CC92E7CDCEFF2201
:1006E200E5392425F8E605392278223007027825F3
:1006F200E475F0011206760204EE2000EB7F2ED2A2
:10070200008018EF540F2490D43440D4FF30040BEF
:10071200EF24BFB41A0050032461FFE53A600215CA
:100722003A053DE53D7002053C30070D7822E4753F
:10073200F001120676EF02053402100F7403D2079D
:100742008003E4C207F5398B228A238924E4F53A2F
:10075200F53CF53DE53A60077F2012071D80F575EF
:100762003BFFC201C200C202C203C205C206C208E6
:100772001206EBFF700D3007057F0012072EAF3D0A
:10078200AE3C22B4255FC2D5C2041206EBFF24D0D0
:10079200B40A00501A75F00A783A30D50508B6FF47
:1007A2000106C6A426F620D5047002D20380D924FD
:1007B200CFB41A00EF5004C2E5D204020A1BD201E0
:1007C20080C6D20080C0D20280BCD2D580BAD20507
:1007D20080B47F2012071D2002077401B53A004041
:1007E200F11206E2FF12071D020756D208D2068056
:1007F200951206E2FB1206E2FA1206E2F94A4B7081
:100802000679127A0B7BFF20022EE53A602A7E00DF
:100812008E8275830012050760060EEE653B70F04E
:10082200C2D5EBC0E0EAC0E0E9C0E0EE120A7BD03C
:10083200E0F9D0E0FAD0E0FB1204EEFF60AAEBC0D0
:10084200E0EAC0E0E9C0E012071DD0E02401F9D0DF
:10085200E03400FAD0E0FBE53B0460DCD53BD98014
:1008620087D20280A2120A5E60F7E53B7001041291
:100872000246A93B600DE53B600914F53B120B05EE
:10088200EF60F3EA30E702F404C3995077EAF42503
:100892003B0430E701E404F53B800D120A5E60C1BF
:1008A200EA053B253B120246EA7838F630E701E4D6
:1008B200253B04D53B0420050114120A7BE4C0E069
:1008C200120B057838E6601320E70714F6120705C5
:1008D200802204F6D0E014C0E07F00120705E53B59
:1008E20060071206FC153B800B3005031206FCD094
:1008F200E0020756D0E00480C5120A5E60A0E53B24
:10090200041202467838EAF6E53B2005026001044B
:050912002404120A7B21
:1009170074FF04C0E0120B05120705E53B20050232
:1009270060031206FCD0E0B53BE87F4512070F785D
:1009370038E67F2B30E7047F2DF404C0E012071D53
:10094700D0E075F00A84C0F0120706D0E01207065F
:10095700020756791080027908C206C2088008D2B9
:10096700D5790A8004790AC2D5E53B047002F53BC4
:10097700E4FAFDFEFF1206E2FC7B082001131206D3
:10098700E2FD7B1030000A1206E2FE1206E2FF7B50
:1009970020EC3382D592D55013C3E43000069FFF75
:1009A700E49EFEE42001039DFDE49CFCE4CBF8C239
:1009B70001EC700CCFCECDCCE824F8F870F380179B
:1009C700C3EF33FFEE33FEED33FDEC33FCEB33FBCC
:1009D700994002FB0FD8E9EB300105F8D0E0C44895
:1009E700B201C0E00AEC4D4E4F78207B0070C2EA9E
:1009F700B53B0040BCC0E0120A7DD0F0D0E020013A
:100A070004C4C0E0C4B201C0F0120706D0F0D5F0AC
:100A1700EB02075612068607F353095A5807C44CC8
:100A270007C042095E4F09664409664907D9430969
:100A37006C55089D4608FB450867470B325007C8A9
:100A47002D07CC2E07EF2B07D02307ED200B1B2AF2
:100A5700078848000007E7E53BB4FF03753B06122C
:100A670006E2FC1206E2FD1206E2FE1206E2FF783B
:100A770031020275790AA2D5200314300509B9108D
:100A8700020404B9080104A2D5200602500104207B
:100A970002689202B53A005034C0E07F2030031953
:100AA7007F30A20272067205500F120AD4C202C228
:100AB70006C205C2087F30800F300503E9C0E01287
:100AC700071D300503D0E0F9D0E0B53ACC30051763
:100AD7007F30B9100C12071D7F583004077F7880CC
:100AE70003B9080312071D3002057F2D02071D7F7A
:100AF700202008F87F2B2006F322920280CF7F0068
:100B0700B4070050052431F8E6FF22286E756C6C97
:100B17002900D2011206E23001F8C201783A30D535
:100B27000108F60207882D504349581206E22403AC
:100B3700B405004001E4900B2D9312070E743A128E
:0A0B4700070ED203753A0402095AA2
:1001FC00E9D2E7C933E833F892D5EDD2E7CD33EC49
:07020C0033FC5002B2D522C1
:10021300EC30E7100FBF000C0EBE00080DBD00044C
:100223000BEB6014A2D5EB13FCED92E7FD2274FFF8
:10023300FCFDFEFF22E480F8A2D574FF13FC7D8051
:03024300E480EF65
:10024600F920E72824F950037907E4F42402FB187F
:10025600DBFDE624FB5014E9600DE4F618E604F62F
:0F026600B40A08E4F6D9F57401F60A22C2D522CB
:10027500ED33EC3392D5FA602AB4FF33EDC2E77B58
:10028500FF60067A02799AE4227A0279A320D504DE
:100295007A02799E224E614E002B494E46002D4929
:1002A5004E4600E47A08F608DAFC7B00740722E87B
:1002B500C0E0ECC0E0EDC0E0EEC0E0EFC0E0EA7504
:1002C500F010A4CAABF075F04DA42BFBE435F0FC9F
:1002D500EA2410FAEB34C5FBEC34D9FCEDC2E7FF98
:1002E50075F056A4F42411C5F0F434C58FF0A42A92
:1002F500E5F03BE43CF620E7141204AED0E0FFD075
:10030500E0FED0E0FDD0E0FC1201218014F40412DF
:1003150004AED0E0FFD0E0FED0E0FDD0E0FC12035B
:1003250078D0E0F8E6FAEDD2E7CD33EC332482FB62
:10033500E4C3CF33CFCE33CECD33CD33DBF37B0721
:1003450075F00A846004F6081B0AE5F0F6088FF0DC
:10035500740AA4FFACF08EF0740AA42CFEACF05025
:10036500010C8DF0740AA42CFDE435F0F608DBDEF3
:03037500740722E8
:10037800EC4D6011E8497017ED33EC3304600DE47F
:10038800FCFFFEFD22E933E8330470F80202311263
:1003980001FC58046009E4CC248150062850090265
:1003A800023B284003020238C0E0EB4A7044B9809F
:1003B80006D0E0FB020227EF4E701CBD8008EBFF61
:1003C800EAFEE9FD80EBE98DF0A4FEE5F0020461A8
:1003D800E9CDF9EAFEEBFFEF89F0A4FCE5F0CE8960
:1003E800F0A42EFFE435F0CD89F0A42DFEE435F01D
:1003F8008067EF4E7005BD80D780C3EF8BF0A4AC4B
:10040800F0EE8BF0A42CFCE435F0F8EF8AF0A42C85
:10041800E5F038FCE433CB8DF0A42CFCE5F03BF898
:10042800EE8AF0A42CFCE5F038F8E433CF89F0A488
:100438002CFCE5F038CF3400CE89F0A42FFFE5F08E
:100448003EFEE433C98DF0A42EFEE5F039CD8AF0E6
:10045800A42FFFE5F03EFEE43DFD33D0E0FB50075E
:100468000BBB000F02023BEC2CFCEF33FFEE33FE1C
:06047800ED33FD0202134A
:10047E003F8000004120000042C80000447A000086
:10048E00461C400047C35000497424004B18968008
:10049E004CBEBC205A0E1BCA6753C21C749DC5AEFF
:1004AE00FB60065407601C23231204DCEB543860F7
:1004BE00091204C81204D7120378ECF8EDF9EEFA1B
:1004CE00EFCB22EB1204D780F1543803241C900496
:1004DE007EFE93FC0EEE93FD0EEE930ECE93FF2258
:03000000021003E8
:0C100300787FE4F6D8FD75818D020D1792
:1004EE00BB010689828A83E0225002E722BBFE020C
:0904FE00E32289828A83E493223F
:10050700BB010CE58229F582E5833AF583E02250A9
:1005170006E92582F8E622BBFE06E92582F8E222F3
:0D052700E58229F582E5833AF583E493220D
:10053400BB010689828A83F0225002F722BBFE01A6
:02054400F322A0
:1005460075F008758200EF2FFFEE33FECD33CDCC6C
:1005560033CCC58233C5829BED9AEC99E5829840EF
:100566000CF582EE9BFEED9AFDEC99FC0FD5F0D6CC
:10057600E4CEFBE4CDFAE4CCF9A88222B800C1B9F6
:100586000059BA002DEC8BF084CFCECDFCE5F0CB34
:10059600F97818EF2FFFEE33FEED33FDEC33FCEB6D
:1005A60033FB10D703994004EB99FB0FD8E5E4F928
:1005B600FA227818EF2FFFEE33FEED33FDEC33FC15
:1005C600C933C910D7059BE99A4007EC9BFCE99A09
:1005D600F90FD8E0E4C9FAE4CCFB2275F010EF2F4E
:1005E600FFEE33FEED33FDCC33CCC833C810D7074E
:1005F6009BEC9AE899400AED9BFDEC9AFCE899F889
:0E0606000FD5F0DAE4CDFBE4CCFAE4C8F9221B
:0E061400C3E49FFFE49EFEE49DFDE49CFC22F7
:10062200EB9FF5F0EA9E42F0E99D42F0E89C45F02E
:0106320022A5
:10063300E8600FECC313FCED13FDEE13FEEF13FFA5
:03064300D8F122C9
:10064600BB010DE58229F582E5833AF5830206B9F9
:100656005007E92582F80206ACBBFE07E92582F8B9
:100666000206C5E58229F582E5833AF5830206D2BC
:10067600FAE6FB0808E6F925F0F618E6CA3AF62285
:10068600D083D082F8E4937012740193700DA3A303
:1006960093F8740193F5828883E473740293686017
:0606A600EFA3A3A380DF17
:0D06AC00E6FB08E6F908E6FA08E6CBF822BE
:0C06B900E0F8A3E0F9A3E0FAA3E0FB22C4
:0D06C500E2FB08E2F908E2FA08E2CBF822B5
:1006D200E493F8740193F9740293FA740393FB227E
:00000001FF
