:10000300E4F50CF50DE4F508F509E4F50AF50B053F
:100013000BE50B7002050AF4450A70F30509E509BF
:1000230070020508644B450870E075A001E4F5080B
:10003300F509E4F50AF50B050BE50B7002050AF467
:10004300450A70F30509E50970020508644B450884
:1000530070E075A003E4F508F509E4F50AF50B056E
:100063000BE50B7002050AF4450A70F30509E5096F
:1000730070020508644B450870E075A002E4F508BA
:10008300F509E4F50AF50B050BE50B7002050AF417
:10009300450A70F30509E50970020508644B450834
:1000A30070E075A006E4F508F509E4F50AF50B051B
:1000B3000BE50B7002050AF4450A70F30509E5091F
:1000C30070020508644B450870E075A004E4F50868
:1000D300F509E4F50AF50B050BE50B7002050AF4C7
:1000E300450A70F30509E50970020508644B4508E4
:1000F30070E075A00CE4F508F509E4F50AF50B05C5
:100103000BE50B7002050AF4450A70F30509E509CE
:1001130070020508644B450870E075A008E4F50813
:10012300F509E4F50AF50B050BE50B7002050AF476
:10013300450A70F30509E50970020508644B450893
:1001430070E075A009050DE50D7002050CF4450C72
:08015300600302000802000332
:0300000002015B9F
:0C015B00787FE4F6D8FD75810D020003EA
:00000001FF
