:10002600C200E4F508F509E598543F4440F59853B5
:10003600A23F538EEF438E01438E0475D6FF75D7CC
:10004600E8438E10D29CD2ACD2AFE509650860FABF
:100056002000F7D20074212509F8E6F5990509C3B1
:0F006600E50994207480948040E0E4F50980DB84
:0300230002007563
:10007500C0E0C0D075D000C000309819C298742176
:100085002508F8A6990508C3E5089420748094808E
:100095004003750800309904C299C200D000D0D041
:0300A500D0E03276
:03000000020003F8
:0C000300787FE4F6D8FD758140020026ED
:00000001FF
