:0903CE00010900010A0001080008
:0803D8007F237E08DEFEDFFC3E
:0103E00022FA
:10000E00AD07AC06ED4C600A1203D8ED1D70F51C61
:03001E0080F2224B
:0503EF00007F06DFFEA7
:0103F40022E6
:1003B000AD07AC06ED4C600A1203EFED1D70F51CA5
:0303C00080F222A6
:10018E00E509146023146033146043146053146043
:10019E00682405707B850AFAE4F5FBF5FCC2B6C24D
:1001AE00B2D2B375BCED804A850AFAE4F5FBF5FCD4
:1001BE00C2B6C2B3D2B275BCEC804FE4F5FAF5FC10
:1001CE00850AFBC2B6C2B3D2B275BCEB8024E4F58D
:1001DE00FAF5FC850AFBC2B3C2B2D2B675BCED808D
:1001EE0029E4F5FAF5FB850AFCC2B3C2B2D2B675A4
:1001FE00BCEC53E6DF43E61022E4F5FAF5FB850A84
:10020E00FCC2B6C2B2D2B375BCEB53E6EF43E620E6
:01021E0022BD
:10009A00759850438E0475D77175D6FC438E10221D
:080003008F993099FDC299228A
:10035D00C2B6C2B3C2B275D90CE4F5E9F5F9F5F23E
:10036D00F5FAF5EA75DA42F5F3F5FBF5EB75DB42D7
:0C037D00F5F4F5FCF5EC75DC42D2DE2254
:0A002100759D3875BCE043A820224D
:03002B000203E1EC
:0703E10053BCEF43BC0832DE
:0703E80075E60C75E7102219
:0300AB00020389C4
:10038900C0E0C0D053E6BF758C00758A00C3E5098B
:10039900940574809480500405098003750900123E
:0703A900018ED0D0D0E0323C
:10002E007B2C7A0153E67F750A14E4F50912018ED2
:10003E007F057E0012000E900000C3E5829BE583D3
:10004E009A500A7F327E001203B0A380ED7C007DB1
:10005E000FAF03AE02120308EF2401FFE43EFEC30E
:10006E00EB9FFBEA9EFAC3EB9419EA9400500675D7
:10007E0008017F0122C3E509940574809480500421
:0C008E0005098003E4F50912018E80AB27
:0B03C300758901E4F58CF58AD2A922AF
:03000B000202AB43
:1002AB00C0E0C0F0C083C082C0D075D000C000C019
:1002BB0002C003C004C005C006C007C2B6C2B3C2A9
:1002CB00B275FA0075FB0075FC00C28CC2AF53E629
:1002DB007F758C00758A0075080012002E43E6802E
:1002EB00D2AFD28CD007D006D005D004D003D00229
:0D02FB00D000D0D0D082D083D0F0D0E0323F
:1000AE00E4F912035D1200211203E812009A120302
:1000BE00C330985CA999C298E9FF7E006422700F44
:1000CE00C3E50A94FA748094805040050A803CEF90
:1000DE0064334E700FD3E50A940A74809480402BDB
:1000EE00150A8027E96411700C12002E43E680D2A7
:1000FE00AFD28C8016E964447011F5FAF5FBF5FC6D
:10010E00C2B6C2B3C2B2C2AF53E67FAF99120003FA
:10011E0020922D7F147E0012000E209294E508701E
:10012E000C12002E43E680D2AFD28C8084C3E50A37
:10013E0094FA7480948040030200BF050A0200BF47
:10014E0030CD030200BF7F147E0012000E30CD03AF
:10015E000200BFD3E50A940A748094804005150A04
:10016E000200BFE4F5FAF5FBF5FCC2B6C2B3C2B2AB
:10017E00C28CC2AF53E67FF58CF58AF5080200BF3C
:0300000002021FDA
:0C021F00787FE4F6D8FD75810A020266C3
:10030800BC000BBE0029EF8DF084FFADF022E4CCD9
:10031800F875F008EF2FFFEE33FEEC33FCEE9DECA2
:10032800984005FCEE9DFE0FD5F0E9E4CEFD22EDE8
:10033800F8F5F0EE8420D21CFEADF075F008EF2F32
:10034800FFED33FD4007985006D5F0F222C398FD23
:050358000FD5F0EA22C0
:10022B000200AEE493A3F8E493A34003F68001F23B
:10023B0008DFF48029E493A3F85407240CC8C333D4
:10024B00C4540F4420C8834004F456800146F6DFA3
:10025B00E4800B01020408102040809003CEE47E62
:10026B00019360BCA3FF543F30E509541FFEE49398
:10027B00A360010ECF54C025E060A840B8E493A35F
:10028B00FAE493A3F8E493A3C8C582C8CAC583CA8A
:10029B00F0A3C8C582C8CAC583CADFE9DEE780BE42
:0103D7000025
:00000001FF
