:07000000020AC8323232325D
:10000B000209F1120ABCC281120AC3C280020AC3DE
:10001B00020003752203E4F521FB7A007921FF121C
:10002B0003F2752208E4F521FB7A0079217F031294
:10003B0003F27522FFE4F521FB7A0079217F06128A
:10004B0003F27522FFE4F521FB7A0079217F070289
:02005B0003F2AE
:10006300020004120AA620D522AF041200A6120A27
:10007300B020D517120788FF1200A6740129F9E4EE
:100083003AFA120AB020D503D525E9020091C281BC
:0B009300120ABED281020AC30200055F
:1000A300020006AE077D08EE30E704D2818002C26B
:1000B30081EE25E0FE120ABEC280120AC3DDE822E9
:1000C300020943AD07EDD394047480948040037F09
:1000D3000122ED600302019BC28C9000021207A172
:1000E30064017004D2A98002C2A99000011207A181
:1000F300FED394037480948040037F0222EEFF7E3C
:1001030000700553B7FDC2B9EF64014E700553B7D4
:10011300FDD2B9EF64024E700543B702C2B9EF6472
:10012300034E700543B702D2B9120788FEC3940386
:100133007480948040037F0222E58954CF4EF58971
:100143009000031207A1FF7E0064017003538E7FAA
:10015300EF4E7003438E80EF64024E7005438904B3
:1001630080035389FB9000041207A16401700543C7
:100173008F018003538FFE900005120835E5F0F5DB
:100183008C900005120835F58A9000071207A164C8
:10019300017002D28C7F0022ED64016003020263CE
:1001A300C28E9000021207A164017004D2AB8002D8
:1001B300C2AB9000011207A1FED394037480948014
:1001C30040037F0222EEFF7E00700553B7F7C2BBE8
:1001D300EF64014E700553B7F7D2BBEF64024E7064
:1001E3000543B708C2BBEF64034E700543B708D29B
:1001F300BB120788FEC394037480948040037F027C
:1002030022E58954CF4EF5899000031207A1FF7EA2
:100213000064017003538EBFEF4E7003438E40EFB3
:1002230064024E700543894080035389BF900004E4
:100233001207A164017005438F028003538FFD9061
:100243000005120835E5F0F58D900005120835F527
:100253008B9000071207A164017002D28E7F0022E7
:10026300ED6402707C538EEF9000021207A16401CB
:10027300700543AF04800353AFFB9000031207A143
:10028300FED394027480948040037F0222EEFF7EAB
:100293000064017003538EFBEF4E7003438E04EF33
:1002A30064024E7005438E088003538EF79000045A
:1002B3001207A164017005438F048003538FFB90E1
:1002C3000005120835E5F0F5D6900005120835F55E
:1002D300D79000071207A164017003438E107F00BB
:1002E30022ED6403707C53D1F79000021207A164DE
:1002F30001700543AF20800353AFDF900003120763
:10030300A1FED394027480948040037F0222EEFF07
:100313007E006401700353D1FDEF4E700343D1029D
:10032300EF64024E700543D104800353D1FB900068
:10033300041207A16401700543D101800353D1FE68
:10034300900005120835E5F0F5D490000512083544
:10035300F5D59000071207A16401700343D1087F0C
:100363000022ED640460030203EF53D17F90000287
:100373001207A16401700543AF40800353AFBF90E0
:1003830000031207A1FD7C00D39402748094804083
:10039300037F0222ED64014C700353D1DF9000030D
:1003A3001207A1700343D1209000031207A1640236
:1003B300700543D140800353D1BF9000041207A1BD
:1003C3006401700543D110800353D1EF90000512EF
:1003D3000835FDACF0ECF5D2AF058FD390000712D2
:1003E30007A16401700343D1807F00227F0222EFC3
:1003F300D394077480948040037F0122120788FE00
:10040300D394037480948040037F0222EF7044EE00
:10041300700B9000011207A1F452935294120788B3
:100423006401700B9000011207A14293F4529412DD
:100433000788FE6402700A9000011207A1429342EA
:1004430094EE6403700D9000011207A1FEF4529321
:10045300EE4294EF64017046120788FE700B900021
:10046300011207A1F452915292EE6401700B9000B5
:10047300011207A14291F452921207886402700A92
:100483009000011207A142914292120788640370FF
:100493000D9000011207A1FEF45291EE4292EF6417
:1004A300027046120788FE700B9000011207A1F438
:1004B30052955296EE6401700B9000011207A1420F
:1004C30095F452961207886402700A90000112078D
:1004D300A1429542961207886403700D90000112A1
:1004E30007A1FEF45295EE4296EF6403704612079D
:1004F30088FE700B9000011207A1F452B152B2EEC4
:100503006401700B9000011207A142B1F452B212C0
:1005130007886402700A9000011207A142B142B237
:100523001207886403700D9000011207A1FEF452B4
:10053300B1EE42B2EF64047046120788FE700B906E
:1005430000011207A1F452B352B4EE6401700B9090
:1005530000011207A142B3F452B412078864027077
:100563000A9000011207A142B342B4120788640340
:10057300700D9000011207A1FEF452B3EE42B4EFE6
:1005830064057046120788FE700B9000011207A1E4
:10059300F452C952CAEE6401700B9000011207A114
:1005A30042C9F452CA1207886402700A9000011209
:1005B30007A142C942CA1207886403700D90000163
:1005C3001207A1FEF452C9EE42CAEF640670461246
:1005D3000788FE700B9000011207A1F452CB52CC96
:1005E300EE6401700B9000011207A142CBF452CCD0
:1005F3001207886402700A9000011207A142CB42DD
:10060300CC1207886403700D9000011207A1FEF459
:1006130052CBEE42CCEF64077049120788FF7E008D
:10062300700B9000011207A1F452E152E2EF640152
:100633004E700B9000011207A142E1F452E212073F
:10064300886402700A9000011207A142E142E2129B
:1006530007886403700D9000011207A1FFF452E1B3
:10066300EF42E27F002243BA809000011207A164A7
:1006730001704590FE80E04440F090FE82E4F090EB
:1006830000021207A190FE817006E0547FF08004FF
:10069300E04480F09000041207A1543FFF90FE80D5
:1006A300E054C04FF09000031207A1640190FE884C
:1006B300700302074702074190FE80E054BFF090A9
:1006C300FE84E4F09000051207A1640190FE83709C
:1006D30006E04440F08004E054BFF09000061207A7
:1006E300A1640190FE837006E04420F08004E0548E
:1006F300DFF09000071207A1640190FE837006E00B
:100703004410F08004E054EFF09000081207A16455
:100713000190FE837006E04408F08004E054F7F093
:100723009000091207A125E0FF90FE85E054014FD8
:10073300F090000A1207A1640190FE857006E05450
:10074300FEF08004E04401F090000B1207A1FFE5E6
:10075300BA54CF4FF5BA12078890FE807006E05462
:100763007FF08004E04480F0751A01751901E4F507
:100773001B7400251BF582E43400F583E090FE86AC
:10078300F053BA7F22BB010689828A83E02250029A
:10079300E722BBFE02E32289828A83E49322BB0120
:1007A3000CE58229F582E5833AF583E0225006E9D8
:1007B3002582F8E622BBFE06E92582F8E222E582DD
:1007C30029F582E5833AF583E49322BB0106898206
:1007D3008A83F0225002F722BBFE01F322BC000BF6
:1007E300BE0029EF8DF084FFADF022E4CCF875F064
:1007F30008EF2FFFEE33FEEC33FCEE9DEC98400543
:10080300FCEE9DFE0FD5F0E9E4CEFD22EDF8F5F008
:10081300EE8420D21CFEADF075F008EF2FFFED3310
:10082300FD4007985006D5F0F222C398FD0FD5F08E
:10083300EA22BB0110E58229F582E5833AF583E0DC
:10084300F5F0A3E0225009E92582F886F008E622B4
:10085300BBFE0AE92582F8E2F5F008E222E5832AE5
:10086300F583E993F5F0A3E9932212001E120A8897
:10087300120A65D2AFE4F518C201FFEFC3940874FE
:100883008094805009740A2FF876100F80ED3001A0
:1008930014C201900000E0F50EA3E0F50FA3E0F50C
:1008A30010A3E0F5113000E6C2000517E51770024A
:1008B3000516C394E8E516940340D3E4F516F5173B
:1008C3000509E509700205089410E5089427400519
:1008D300E4F508F509AE08AF097C037DE81207E0EB
:1008E3008F12AE08AF097C037DE81207E07E007F1C
:1008F30064CFCDCFCECCCE1207E08F13AE08AF09B5
:100903007C007D641207E07E007F0ACFCDCFCECC82
:10091300CE1207E08F14AE08AF097C007D0A1207E0
:10092300E08D1585120A85130B85140C85150D7B37
:10093300007A007912752504E4FF1200660208911B
:10094300C0E0C083C082C0D075D000C005C006C05F
:1009530007AFBA43BA8090FE84E030E606E054BFA6
:10096300F0807A90FE84E030E535E054DFF0E51A5C
:100973006005751A008066E519600D75190090FE13
:1009830087E0F51B2400803490FE87E0FEAD1B0555
:100993001B74002DF582E43400F583EEF0803E9065
:1009A300FE84E030E424E054EFF0E030E10890FE10
:1009B3008674FFF08027051B7400251BF582E43441
:1009C30000F583E090FE86F0801390FE84E030E330
:1009D3000CE054F7F0751A01751901D2018FBAD0E2
:1009E30007D006D005D0D0D082D083D0E032C0E08B
:1009F300C0F0C083C082C0D075D000C000C001C0A9
:100A030002C003C004C005C006C007120A2ED200EC
:100A1300D007D006D005D004D003D002D001D00037
:100A2300D0D0D082D083D0F0D0E032C374079518F1
:100A3300FFE49400FE74FF2FF582740A3EF583E40D
:100A430093F4F5F8740A2518F8E6900AD493F4F5AC
:100A5300E80518C3E5189408748094804003E4F50E
:100A63001822E4F5227521017526017527017528E1
:100A730001752901752B01752A2D752C30FB7A0020
:100A83007921020669E4F521F522752301F524F5A0
:100A9300257526A2752740752801FB7A007921FF69
:100AA3000200C6AC0712000E7F5A1200A6120ABC3F
:100AB300A28192D5C280020AC3D281120AC3D28014
:100AC3007F0CDFFE22787FE4F6D8FD75812C0208C7
:100AD3006D3F065B4F666D7D077F6F777C395E796F
:100AE300710040761E7038375C733E783D6750372F
:100AF3006EBF86DBCFE6EDFD87FFEF4601020408FC
:040B030010204080FE
:00000001FF
