:10000300000008080808FF080808F90204000000B7
:10001300010101010101FF0101012141211F000033
:100023000000F000000000FF00000000F0000000EE
:1000330000003F202020203F202020207F000000C0
:1000430004040484E43C2724242424E40404040056
:1000530004020100FF0909090949897F0000000022
:10006300003E22E2223E0010885724548C000000F8
:10007300407E403F22220001FE424242FE01010037
:1000830004C45F54F4545FC41410FF1010F0000054
:10009300809595957F55D55520184780403F0000A2
:1000A3000020222C2020E03F20202020E000000020
:1000B3008040201008060100014680403F000000F8
:1000C300001088C43380824222121A262240800004
:1000D300020100FF00404242427E4242424240004F
:1000E300000000000000000000000000000000000D
:1000F30000005B3B00000000000000000000000067
:10010300403011969090919690909814135030002F
:10011300040404040444847E060504040404040063
:100123001060020CC01008F714549414F404000077
:1001330004047C0300011D13115599513F11010063
:100143000040424242C27E42C2424242404000001C
:10015300804020100C0300003F40404040700000EE
:100163001060028C00FE82929292FE929292820022
:1001730004047E81601F404848487E484848400048
:10018300848484849F8484F484849F84848484000A
:10019300000000FC44444447444444FC0000000085
:1001A300008060F80740300FF888888888080800C6
:1001B300010000FF00000000FF0808080808000015
:1001C300808080FC848695E4848484FC8080800025
:1001D3008040300F0000020C0040807F00000000D0
:1001E300000000000000000000000000000000000C
:1001F3000000182424180000000000000000000084
:10020300E4F5081203F712038212047EE4F508E50D
:1002130008FD3395E0FCC3ED9404EC6480948050B6
:1002230029E508C454F0FFC007AE04ED7805C333D5
:10023300CE33CED8F92403F58274003EAB82FAD0D4
:1002430007E4FD120327050880C5120483E4F508BB
:10025300750904AF08EF3395E0FEC3EF9404EE6431
:100263008094805030E508C454F0FFC007AF09EF15
:100273003395E0FEEF7805C333CE33CED8F92403AC
:10028300F58274003EAB82FAD007E4FD1203270522
:1002930008050980BE12047EE4F508E508FD3395E0
:1002A300E0FCC3ED9404EC648094805029E508C419
:1002B30054F0FFC007AE04ED7805C333CE33CED878
:1002C300F92403F58274013EAB82FAD0077D021252
:1002D3000327050880C5120483E4F508E508FD3308
:1002E30095E0FCC3ED9404EC648094805029E50808
:1002F300C454F0FFC007AE04ED7805C333CE33CE4C
:10030300D8F92483F58274013EAB82FAD0077D02CB
:10031300120327050880C57FE87E0312043C1203FD
:040323008202020C44
:1003C600C2A18A907F027E001203D7D2A07F027E4E
:0103D6000026
:1003D700E4FDFCC3ED9FEC9E50070DBD00010C80B2
:0F03E700F2E4FFFE0FBF00010EEF640A4E70F547
:0103F60022E4
:10042200C2A2D2A1E4FBD2A07F02FE1203D7C2A0D5
:09043200E47003D38001C350EB18
:01043B00229E
:0D044F00AA07120422C2A21203C6C2A022F4
:1003F7007F647E001203D7D2A4D2A37F647E00124B
:1004070003D77F3E12044F7FB812044F7FC01204F8
:0B0417004F7F4012044F7F3F02044F54
:0D045C00AA07120422D2A21203C6C2A022D7
:10038200C2A4C2A37FB812044F7F4012044FE4F507
:100392000AC3E50A9408748094805027E50A24B8B9
:1003A200FF12044FE4F9E9C3944074809480500F23
:1003B200E92440FF12044FE4FF12045C0980E705C0
:0303C2000A80CEE0
:0103C5002215
:080327008F0A8D0B8A0C8B0D6F
:10032F00E4F9F50EE9C39402748094805044E50B10
:10033F0024B829FF12044FE50A2440FF12044FE4AA
:10034F00F50EC3E50E9410748094805022E975F079
:10035F0010A47C00250EFFEC35F0FEE50D2FF58285
:10036F00E50C3EF583E493FF12045C050E80D30980
:02037F0080B24A
:010381002259
:05047E00C2A4D2A3227C
:05048300D2A4C2A32277
:080475007F0C7EA9DEFEDFFC16
:01047D00225C
:10043C00AD07AC061204750DEDAE0470010C144E34
:03044C0070F22229
:030000000204698E
:0C046900787FE4F6D8FD75810E020203D6
:00000001FF
