:1000030070776D303A257520092070776D313A2568
:0E0013007520092070776D323A25750D0A00B0
:10063A007DCE7C04ED1D70011C144C70F7EF1F7009
:06064A00011E144E70EACF
:010650002287
:10039A001205A253951F4396E0E4F5B1F5B2120691
:1003AA001DD2AF7FF47E0112063AB2900523E523EF
:1003BA0070020522C39420E5229417400675220094
:1003CA00752350AD23AC22E4FF12053A0525E52535
:1003DA0070020524C39420E524941740067524006E
:1003EA00752550AD25AC247F0112053A0527E5276E
:1003FA0070020526C39420E5269417400675260048
:10040A00752750AD27AC267F0212053A7BFF7A008A
:10041A00790385223D85233E85243F85254085260F
:0A042A00418527421200A00203AD35
:10061D00759850438E01438E0475D75F75D6FE4392
:0D062D008E10D2ACC2A9D29CC29FD29E22D8
:070032003098FDC298AF9960
:0100390022A4
:080651008F993099FDC2992236
:030023000205F2E1
:1005F200C0E0C083C082C0D075D00830980DC298C8
:10060200AB10AA11A912E599120434309904C299C7
:0B061200C209D0D0D082D083D0E032EB
:10053A00D3ED9420EC941740047C177D20C3ED94EE
:10054A0050EC940050047C007D50EFFB7A0070144C
:10055A00C2DE8C288D29C374709DF52F74179CF503
:10056A002ED2DE22EB64014A7014C2DE8C2A8D2B55
:10057A00C374709DF53174179CF530D2DE22EB649A
:10058A00024A7013C2DE8C2C8D2DC374709DF53314
:08059A0074179CF532D2DE2239
:1005A200C2DEE5A254CF4420F5A275DA4D75DB4DCB
:1005B20075DC4DE4F5F9F5E9E5D954F14408F5D9CE
:1005C200D2BF7522057523DC75240B7525B87526F7
:1005D20011752794AD23AC22E4FF12053AAD25AC88
:1005E200240F12053AAD27AC260F12053AD2DE22AD
:03003B000204C2FA
:1004C200C0E0C0D030D822C2D830A50AE5292535EF
:1004D200F535E5288008E52F2535F535E52E353447
:1004E200F5348535EAE534F5FA30D922C2D930A699
:1004F2000AE52B2537F537E52A8008E5312537F55A
:1005020037E5303536F5368537EBE536F5FB30DA4B
:1005120022C2DA30A70AE52D2539F539E52C800803
:10052200E5332539F539E5323538F5388539ECE5E5
:0805320038F5FCD0D0D0E03216
:03000000020026D5
:0C002600787FE4F6D8FD75814D02039A46
:10043400BB010689828A83F0225002F722BBFE01A7
:02044400F322A1
:10003E00E549243DF8E6054922783A300702783D35
:10004E00E475F00112048C0204462000EB7F2ED2E0
:10005E00008018EF540F2490D43440D4FF30040B9A
:10006E00EF24BFB41A0050032461FFE54A60021565
:10007E004A054DE54D7002054C30070D783AE47592
:10008E00F00112048CEF0204340206517403D207FD
:10009E008003E4C207F5498B3A8A3B893CE4F54A72
:1000AE00F54CF54DE54A60077F2012007980F57515
:1000BE004BFFC201C200C202C203C205C206C20881
:1000CE00120047FF700D3007057F0012008AAF4DFA
:1000DE00AE4C22B4255FC2D5C204120047FF24D015
:1000EE00B40A00501A75F00A784A30D50508B6FFE2
:1000FE000106C6A426F620D5047002D20380D924A8
:10010E00CFB41A00EF5004C2E5D20402028AD20123
:10011E0080C6D20080C0D20280BCD2D580BAD205B1
:10012E0080B47F201200792002077401B54A004086
:10013E00F112003EFF1200790200B2D208D2068000
:10014E009512003EFB12003EFA12003EF94A4B7029
:10015E0006795B7A037BFF20022EE54A602A7E0039
:10016E008E8275830012045F60060EEE654B70F092
:10017E00C2D5EBC0E0EAC0E0E9C0E0EE1202D1D099
:10018E00E0F9D0E0FAD0E0FB120446FF60AAEBC023
:10019E00E0EAC0E0E9C0E0120079D0E02401F9D035
:1001AE00E03400FAD0E0FBE54B0460DCD54BD9809F
:1001BE00877BFF7A0279CDD202809C7910800279FA
:1001CE0008C206C2088008D2D5790A8004790AC20C
:1001DE00D5E54B047002F54BE4FAFDFEFF12003E2E
:1001EE00FC7B0820011312003EFD7B1030000A122A
:1001FE00003EFE12003EFF7B20EC3382D592D5509E
:10020E0013C3E43000069FFFE49EFEE42001039D2D
:10021E00FDE49CFCE4CBF8C201EC700CCFCECDCC4F
:10022E00E824F8F870F38017C3EF33FFEE33FEEDDA
:10023E0033FDEC33FCEB33FB994002FB0FD8E9EBBB
:10024E00300105F8D0E0C448B201C0E00AEC4D4ED2
:10025E004F78207B0070C2EAB54B0040BCC0E01264
:10026E0002D3D0F0D0E0200104C4C0E0C4B201C07B
:10027E00F0120062D0F0D5F0EB0200B212049C0135
:10028E004F5301C95801204C011C4201CD4F01D5DD
:0F029E004401D54901354301DB5501BF4601BF7E
:1002AD004501BF47037B5001242D01282E014B2B07
:1002BD00012C2301492003642A00E4480000014376
:1002CD003F3F3F00790AA2D5200314300509B9102C
:1002DD00020404B9080104A2D5200602500104202D
:1002ED0002689202B54A005034C0E07F20300319F5
:1002FD007F30A20272067205500F12032AC202C28B
:10030D0006C205C2087F30800F300503E9C0E01238
:10031D000079300503D0E0F9D0E0B54ACC300517AF
:10032D007F30B9100C1200797F583004077F788028
:10033D0003B908031200793002057F2D0200797F81
:10034D00202008F87F2B2006F322920280CF286E02
:10035D00756C6C2900D20112003E3001F8C2017893
:10036D004A30D50108F60200E42D504349581200D9
:10037D003E2403B405004001E49003769312006A15
:0D038D00743A12006AD203754A040201C9D5
:10044600BB010689828A83E0225002E722BBFE02B4
:09045600E32289828A83E49322E7
:10045F00BB010CE58229F582E5833AF583E0225052
:10046F0006E92582F8E622BBFE06E92582F8E2229C
:0D047F00E58229F582E5833AF583E49322B6
:10048C00FAE6FB0808E6F925F0F618E6CA3AF62271
:10049C00D083D082F8E4937012740193700DA3A3EF
:1004AC0093F8740193F5828883E473740293686003
:0604BC00EFA3A3A380DF03
:00000001FF
