:0B0462003F065B4F666D7D077F6F005B
:08046D00020C0000020A00006D
:06042E0093F59012043466
:0F043400E4FFEFC394C87480948050030F80F3EB
:010443002296
:10023200120103C2A21204447FE87E0312025E127C
:1002420003F7C2A2C2A31204537FE87E0312025E26
:0C02520012009AC2A41204447FE87E034C
:10025E00D3EF9400EE648094804015E4FDFC0DBD58
:10026E0000010CED64414C70F5EF1F70E31E80E051
:01027E00225D
:0403B2007F0A7E0040
:1003B600D3EF9400EE940040167DFFEDD3940074C5
:0F03C60080948040031D80F3EF1F70E41E80E1E0
:0103D5002205
:06030E00C2B1D2B0AF083D
:10031400AE07C2B6EE75F00A8490046212042ED2BF
:10032400B6C2B7EE75F00A84E5F012042E75B0FF7C
:0903340075900112043402043436
:10038D00C2B0C2B1E4F50CF50DA2A7B392A77F2CB4
:10039D007E011203B6C3E50D9450E50C940040E9BF
:0503AD00C2A7C2A1225D
:1001CF00D2A0E4F50CF50DF50AF50BF509F508C30A
:1001DF00E50B9490E50A94015044E4F50CF50DC33A
:1001EF00E50D9450E50C9400500FE50B9490E50A43
:1001FF009401500512030E80E6E4F50CF50DC3E5EE
:10020F000D9450E50C940050C6E50B9490E50A94BC
:10021F000150BCC2B0D2B1AF0812031480E0C2B01B
:03022F00C2B12237
:10016A00C2A0D2A1E4F50CF50DF50AF50BF509F5D7
:10017A0008C3E50B9490E50A94015044E4F50CF5A4
:10018A000DC3E50D943CE50C9400500FE50B9490DB
:10019A00E50A9401500512030E80E6E4F50CF50D0C
:1001AA00C3E50D943CE50C940050C6E50B9490E52C
:1001BA000A940150BCC2B0D2B1AF0812031480E055
:0501CA00C2B0C2B12229
:10010300C2A0C2A1D2A2E4F50CF50DF50AF50BF5D8
:1001130009F508C3E50B9490E50A94015044E4F50E
:100123000CF50DC3E50D9428E50C9400500FE50B79
:100133009490E50A9401500512030E80E6E4F50C51
:10014300F50DC3E50D9428E50C940050C6E50B941A
:1001530090E50A940150BCC2B0D2B1AF08120314A7
:0701630080E0C2B0C2B1222E
:10009A00C2A0C2A1D2A3E4F50CF50DF50AF50BF541
:1000AA0009F508C3E50B9490E50A94015044E4F578
:1000BA000CF50DC3E50D9428E50C9400500FE50BE3
:1000CA009490E50A9401500512030E80E6E4F50CBB
:1000DA00F50DC3E50D9428E50C940050C6E50B9484
:1000EA0090E50A940150BCC2B0D2B1AF0812031411
:0900FA0080E0C2B0C2B1C2A32231
:0F044400C2B0C2B1D2A62085FD208502C2A62279
:0F045300C2B0C2B1D2A52084FD208402C2A5226E
:1003F700D2A4E4F50CF50DF509F508D3E50D9490B5
:0E040700E50C9401500512030E80F0C2A422F1
:10033D00D2A4E4F50CF50DF509F508D3E50D94906F
:10034D00E50C9401500512030E80F0C2A3C2A41255
:09035D00038D750C01750D912250
:1002C700D2A01204531201CF7FA07E0F12025E123A
:1002D700016A7FA07E0F12025E120103C2A2120200
:1002E700571203F7C2A4C2A2C2A312045312025A9E
:1002F70012009AC2A4C2A312025712033D7FF47ED2
:07030700011203B602038D91
:1003D600D2A112045312016A7FA07E0F12025E128E
:1003E60002321203F77FF47E011203B6C2A30203A0
:0103F6008D79
:10041500D2A21204531202321203F77FF47E0112A4
:0904250003B6C2A3C2B002038DAC
:10027F00758901758C3D758AB0D2AFD2A9D28CE445
:10028F00F5A0F509F5082080091203B220800312AA
:10029F0002C72081091203B22081031203D62082E4
:1002AF00091203B22082031204152083D91203B25C
:0802BF002083D312033D80CE21
:03000B0002036687
:10036600C0E00509E50964147004F5090508758CF3
:100376003D758AB0050DE50D7002050C050BE50B04
:070386007002050AD0E0320D
:0300000002000EED
:0C000E00787FE4F6D8FD75810D020055E6
:10001A0002027FE493A3F8E493A34003F68001F27B
:10002A0008DFF48029E493A3F85407240CC8C333E7
:10003A00C4540F4420C8834004F456800146F6DFB6
:10004A00E4800B010204081020408090046DE47ED5
:10005A00019360BCA3FF543F30E509541FFEE493AB
:10006A00A360010ECF54C025E060A840B8E493A372
:10007A00FAE493A3F8E493A3C8C582C8CAC583CA9D
:10008A00F0A3C8C582C8CAC583CADFE9DEE780BE55
:010475000086
:00000001FF
