:10033800535443313557344B0000000000FF000090
:10034800000000000E00FF00000000FF000E00FF8C
:10035800000000FFF5FBF1FF0000FE08FE0A0AFF9F
:1003680000000400FF000A1100001F111F11111FD7
:0903780000181807080808070026
:0C051100041500000000041D00000000A4
:10000E00E4F50CF593F594F591F592F595F596F5D5
:10001E00B1F5B2F5B3F5B4F5C9F5CAF5CBF5CCF536
:10002E00E1F5E21204C312042DE4FF1204857F01F0
:10003E001204857BFF7A037938E4FDFF1203FE126A
:10004E0004A5E4FBFD7F011204EC7B017D017F0121
:10005E001204EC7B027D027F011204EC7B037D0314
:10006E007F011204EC7B047D047F011204EC7B05FE
:10007E007D057F011204EC7B067D067F011204ECE8
:10008E007B077D077F011204ECAF18AE17AD16ACDF
:10009E00158F0B8E0A8D098C08C3E50B9520FFE595
:1000AE000A951FFEE509951EFDE508951DFCE47BEE
:1000BE00E87A03F9F8D312021A50CEAF18AE17AD84
:1000CE0016AC158F208E1F8D1E8C1D050CE50C9405
:1000DE00FF7480948050B2AF0C7E0012022B7D090B
:1000EE00E4FF1203FEAB0C7D0EE4FF1204ECC374AE
:1000FE00FF950CFFE49400FE12022B7D097F011286
:10010E0003FEC374FF950CFB7D0E7F011204EC02FF
:02011E00009748
:1004C300538E7F5389F0758A18758CFCC28DD28C3C
:0504D300D2A9D2AF2206
:03000B000203C32A
:1003C300C0E0C0D075D000C004C005C006C007752A
:1003D3008A18758CFCAF18AE17AD16AC15EF240157
:1003E300F518E43EF517E43DF516E43CF515D007A2
:0B03F300D006D005D004D0D0D0E032FE
:060381007E007D007C00FF
:080387008F108E0F8D0E8C0DFE
:10038F00AF18AE17AD16AC158F148E138D128C11CE
:10039F00C3E5189514FFE5179513FEE5169512FDA5
:1003AF00E5159511FCAB10AA0FA90EA80DD31202DB
:0303BF001A50DDF4
:0103C2002218
:1004FF00E4FFFE30870B0FBF00010EBE13F5BF8860
:01050F00F2F9
:0105100022C8
:10045B00C2A18F800000000000000000000000001F
:10046B00000000D2A200000000000000000000000D
:0A047B0000000000C2A27580FF22FD
:0302A1004480FF97
:1002A400AD07C2A0D2A17580FF00000000000000CD
:1002B4000000000000000000D2A21204FFC2A2C28B
:1002C400A18D80000000000000000000000000007C
:1002D4000000D2A2000000000000000000000000A6
:0902E400000000C2A27580FF2297
:1002ED00AD07C2A0D2A17580FF0000000000000084
:1002FD000000000000000000D2A21204FFC2A2C242
:10030D00A1D2A08D800000000000000000000000C0
:10031D0000000000D2A2000000000000000000005C
:0B032D000000000000C2A27580FF224B
:04022B00AB07AA066D
:10022F007C007D641201C58F0D7C007D64AF03AE31
:10023F00021201C57E007F0ACFCDCFCECCCE1201E8
:10024F00C58F0EAE02AF037C007D641201C57E0028
:10025F007F0ACFCDCFCECCCE1201C5AF05E4FEE5E0
:10026F000D600A2430FDEE2419F8A6050EE50E6088
:10027F000A2430FD74192EF8A6050EEF2430FF74F2
:10028F00192EF8A6070E74192EF8E4F6FB7A0079EA
:01029F001945
:0102A000223B
:10042D00C2A2C2A0C2A17F641203817F3012045BFD
:10043D007F0A1203817F381202A47F061203817F87
:0E044D00011202A47F061202A47F0C0202A478
:10048500EF5401C4333354C01202A1E4FCECC3940D
:0F049500107480948050087F201202ED0C80EECE
:0104A4002235
:1004EC00AC03EF5401C4333354C02D1202A1AF043A
:0304FC000202ED0C
:1003FE00AC05EF5401C4333354C02C4480FF1202B9
:10040E00A41201ACFF60171202ED0CC3EC94107431
:0F041E008094805009740129F9E43AFA80E322AE
:1004A5007F401202A4E4FCECC39440748094805015
:0D04B5000CEC90034193FF1202ED0C80EA65
:0104C2002217
:1004D800C2B77F03120381D2B77F037E007D007C01
:0404E8000002038784
:03000000020120DA
:0C012000787FE4F6D8FD758120020167AD
:1001AC00BB010689828A83E0225002E722BBFE0251
:0901BC00E32289828A83E4932284
:1001C500BC000BBE0029EF8DF084FFADF022E4CC1E
:1001D500F875F008EF2FFFEE33FEEC33FCEE9DECE7
:1001E500984005FCEE9DFE0FD5F0E9E4CEFD22ED2D
:1001F500F8F5F0EE8420D21CFEADF075F008EF2F77
:10020500FFED33FD4007985006D5F0F222C398FD67
:050215000FD5F0EA2204
:10021A00EB9FF5F0EA9E42F0E99D42F0E89C45F03A
:01022A0022B1
:10012C0002000EE493A3F8E493A34003F68001F2DB
:10013C0008DFF48029E493A3F85407240CC8C333D4
:10014C00C4540F4420C8834004F456800146F6DFA3
:10015C00E4800B0102040810204080900511E47E1D
:10016C00019360BCA3FF543F30E509541FFEE49398
:10017C00A360010ECF54C025E060A840B8E493A35F
:10018C00FAE493A3F8E493A3C8C582C8CAC583CA8A
:10019C00F0A3C8C582C8CAC583CADFE9DEE780BE42
:01051D0000DD
:00000001FF
