:10020E00EFD394057480948040037F012212061C64
:10021E00FED394037480948040037F0222EF7044D7
:10022E00EE700B900001120635F4529352941206A2
:10023E001C6401700B9000011206354293F4529427
:10024E0012061CFE6402700A9000011206354293DB
:10025E004294EE6403700D900001120635FEF452C6
:10026E0093EE4294EF6401704612061CFE700B90E2
:10027E000001120635F452915292EE6401700B9009
:10028E0000011206354291F4529212061C6402705D
:10029E000A9000011206354291429212061C640326
:1002AE00700D900001120635FEF45291EE4292EF5F
:1002BE006402704612061CFE700B90000112063589
:1002CE00F452955296EE6401700B900001120635B1
:1002DE004295F4529612061C6402700A90000112A6
:1002EE0006354295429612061C6403700D9000016D
:1002FE00120635FEF45295EE4296EF6403704612E6
:10030E00061CFE700B900001120635F452B152B26B
:10031E00EE6401700B90000112063542B1F452B238
:10032E0012061C6402700A90000112063542B14298
:10033E00B212061C6403700D900001120635FEF415
:10034E0052B1EE42B2EF6404704612061CFE700B00
:10035E00900001120635F452B352B4EE6401700BE4
:10036E0090000112063542B3F452B412061C640218
:10037E00700A90000112063542B342B412061C6494
:10038E0003700D900001120635FEF452B3EE42B426
:10039E00EF6405704912061CFF7E00700B90000181
:1003AE00120635F452C952CAEF64014E700B90001A
:1003BE000112063542C9F452CA12061C6402700AB2
:1003CE0090000112063542C942CA12061C6403701F
:1003DE000D900001120635FFF452C9EF42CA7F009C
:0103EE0022EC
:100789003F065B4F666D7D077F6F777C395E7971B8
:1007550002200000010800010900020A0000020C45
:02076500000092
:10077900758901758CFC758A18D2AFD2A9D28C22E1
:0407A9007F327E001D
:0707AD008E198F1AC206220B
:1003EF00E4FDF523F524F525F52643C110A8057482
:1003FF0008088002C313D8FCF510E52390078993F2
:10040F00F511E52493F512E52593F513E52693F5FC
:10041F00143003030204A91207A974232DF8E6066A
:10042F00C3940974809480400674232DF8E4F67405
:10043F00232DF8E690078993FF74112DF8A6077501
:10044F001B01751CF4D2003000033003FAC3E5180A
:10045F0094F4E5179401403B43C110751B00751CC4
:10046F007DD2003000033003FA1207A974232DF850
:10047F00E606C3940974809480400674232DF8E433
:10048F00F674232DF8E690078993FF74112DF8A6C3
:10049F000780BAC200E4F51BF51C3002030203F912
:1004AF001207A90D20023D43C110C3E51694E8E5DC
:1004BF0015940340EF2005EC1207A9E4FDF874082A
:1004CF00088002C313D8FCF510E52390078993F534
:1004DF0011E52493F512E52593F513E52693F5140D
:1004EF00D20580C0300505C2050203F9EDC394049F
:1004FF007480948050030203F9E4F510AF23FE7C5F
:10050F00037DE8120662AC06AD07E52475F064A41E
:10051F002DFDEC35F0FCE52575F00AA42DFFE5F077
:0B052F003CFE7C00EF2526FFEC3EFEAA
:01053A00229E
:100768007524FF7523037B007A0079237F02020238
:010778000E72
:10053B00E4F522D20675C12775920FF5917596FFDA
:10054B00F595D201120768120779751B03751CE824
:10055B00D2002000FDC201900789E493F511F5123A
:10056B00F513F514D209C2081203EF8E0E8F0FE5A7
:10057B000F450E60F3E50F150F7002150ED207C273
:10058B000930073E43C11020020B1207A9200205B8
:10059B0043C11080F82003E91207A9B208A2089200
:1005AB00092003DD43C1103008F7C3E51894B8E503
:1005BB0017940B40EC0000000043C7200000000024
:1005CB0080DF75117975125475135EE4F514F522FD
:1005DB00C3E522940674809480501C751B01751C16
:1005EB00F4D2002000FD7FF47E011207AD3006FD32
:1005FB0043C110052280D943C1103002032003F7F9
:10060B001207A930020630030302056F43C11080A5
:01061B00F2EC
:03000B0002000EE2
:10000E00C0E0C0F0C083C082C0D075D000C000C0B8
:07001E0004C005C006C00785
:10002500758CFC758A1830000FE51C151C700215BF
:100035001B14451B7002C20043900F3001067E0061
:100045007FFF802BE5086403FF7E007401A8070885
:100055008005C333CE33CED8F9FFEF5510600720A6
:1000650004047F00800774112508F8E6FF7E008FE1
:10007500A0AF08A8077401088002C333D8FCF45266
:10008500900508C3E50894047480948040037508BE
:1000950000300109D202D203C2B20201F9A20692CE
:1000A500B220060FE51A151A7002151914451970B4
:1000B50002D2060509C3E50994327480948040058F
:1000C500750900B20420B014E516F47003E515F4C3
:1000D50060100516E516700A05158006751500757C
:1000E500160020B114E518F47003E517F460100547
:1000F50018E518700A05178006751700751800C3EE
:10010500E5169419E51594004003D38001C3B39215
:1001150002C3E5189419E51794004003D38001C381
:10012500B39203050DE50D7002050CC394E8E50CCB
:100135009403400A750C00750D00A20992B32007BF
:10014500030201F930080675100F0201F975100058
:10015500050BE50B7002050AC394E8E50A94035004
:10016500030201F9750A00750B00AE0EAF0F7C0393
:100175007DE81206747C007D0A12067474892DF5DB
:100185008274073CF583E493F511AE0EAF0F7C0046
:100195007D641206747C007D0A12067474892DF53F
:1001A5008274073CF583E493F512AE0EAF0F7C0025
:1001B5007D0A1206747C007D0A12067474892DF579
:1001C5008274073CF583E493F513AE0EAF0F7C0004
:1001D5007D0A12067474892DF58274073CF583E453
:1001E50093F514E50F150FAE0E7002150E4E700443
:0401F500C207D20962
:1001F900D007D006D005D004D000D0D0D082D0838B
:05020900D0F0D0E0324E
:0F0799007DA57C06ED1D70011C144C70F7DFF17F
:0107A800222E
:030000000206C92C
:0C06C900787FE4F6D8FD7581260207104A
:10061C00BB010689828A83E0225002E722BBFE02DC
:09062C00E32289828A83E493220F
:10063500BB010CE58229F582E5833AF583E022507A
:1006450006E92582F8E622BBFE06E92582F8E222C4
:0D065500E58229F582E5833AF583E49322DE
:10066200EF8DF0A4A8F0CF8CF0A428CE8DF0A42EAC
:02067200FE2266
:10067400BC000BBE0029EF8DF084FFADF022E4CC6A
:10068400F875F008EF2FFFEE33FEEC33FCEE9DEC33
:10069400984005FCEE9DFE0FD5F0E9E4CEFD22ED79
:1006A400F8F5F0EE8420D21CFEADF075F008EF2FC3
:1006B400FFED33FD4007985006D5F0F222C398FDB4
:0506C4000FD5F0EA2251
:1006D50002053BE493A3F8E493A34003F68001F2FB
:1006E50008DFF48029E493A3F85407240CC8C33326
:1006F500C4540F4420C8834004F456800146F6DFF5
:10070500E4800B0102040810204080900755E47E28
:10071500019360BCA3FF543F30E509541FFEE493E9
:10072500A360010ECF54C025E060A840B8E493A3B0
:10073500FAE493A3F8E493A3C8C582C8CAC583CADB
:10074500F0A3C8C582C8CAC583CADFE9DEE780BE93
:010767000091
:00000001FF
